{
  "contractName": "DateTime",
  "abi": [
    {
      "constant": true,
      "inputs": [
        {
          "name": "year",
          "type": "uint16"
        }
      ],
      "name": "isLeapYear",
      "outputs": [
        {
          "name": "",
          "type": "bool"
        }
      ],
      "payable": false,
      "stateMutability": "pure",
      "type": "function"
    },
    {
      "constant": true,
      "inputs": [
        {
          "name": "year",
          "type": "uint256"
        }
      ],
      "name": "leapYearsBefore",
      "outputs": [
        {
          "name": "",
          "type": "uint256"
        }
      ],
      "payable": false,
      "stateMutability": "pure",
      "type": "function"
    },
    {
      "constant": true,
      "inputs": [
        {
          "name": "month",
          "type": "uint8"
        },
        {
          "name": "year",
          "type": "uint16"
        }
      ],
      "name": "getDaysInMonth",
      "outputs": [
        {
          "name": "",
          "type": "uint8"
        }
      ],
      "payable": false,
      "stateMutability": "pure",
      "type": "function"
    },
    {
      "constant": true,
      "inputs": [
        {
          "name": "timestamp",
          "type": "uint256"
        }
      ],
      "name": "getYear",
      "outputs": [
        {
          "name": "",
          "type": "uint16"
        }
      ],
      "payable": false,
      "stateMutability": "pure",
      "type": "function"
    },
    {
      "constant": true,
      "inputs": [
        {
          "name": "timestamp",
          "type": "uint256"
        }
      ],
      "name": "getMonth",
      "outputs": [
        {
          "name": "",
          "type": "uint8"
        }
      ],
      "payable": false,
      "stateMutability": "pure",
      "type": "function"
    },
    {
      "constant": true,
      "inputs": [
        {
          "name": "timestamp",
          "type": "uint256"
        }
      ],
      "name": "getDay",
      "outputs": [
        {
          "name": "",
          "type": "uint8"
        }
      ],
      "payable": false,
      "stateMutability": "pure",
      "type": "function"
    },
    {
      "constant": true,
      "inputs": [
        {
          "name": "timestamp",
          "type": "uint256"
        }
      ],
      "name": "getHour",
      "outputs": [
        {
          "name": "",
          "type": "uint8"
        }
      ],
      "payable": false,
      "stateMutability": "pure",
      "type": "function"
    },
    {
      "constant": true,
      "inputs": [
        {
          "name": "timestamp",
          "type": "uint256"
        }
      ],
      "name": "getMinute",
      "outputs": [
        {
          "name": "",
          "type": "uint8"
        }
      ],
      "payable": false,
      "stateMutability": "pure",
      "type": "function"
    },
    {
      "constant": true,
      "inputs": [
        {
          "name": "timestamp",
          "type": "uint256"
        }
      ],
      "name": "getSecond",
      "outputs": [
        {
          "name": "",
          "type": "uint8"
        }
      ],
      "payable": false,
      "stateMutability": "pure",
      "type": "function"
    },
    {
      "constant": true,
      "inputs": [
        {
          "name": "timestamp",
          "type": "uint256"
        }
      ],
      "name": "getWeekday",
      "outputs": [
        {
          "name": "",
          "type": "uint8"
        }
      ],
      "payable": false,
      "stateMutability": "pure",
      "type": "function"
    },
    {
      "constant": true,
      "inputs": [
        {
          "name": "year",
          "type": "uint16"
        },
        {
          "name": "month",
          "type": "uint8"
        },
        {
          "name": "day",
          "type": "uint8"
        }
      ],
      "name": "toTimestamp",
      "outputs": [
        {
          "name": "timestamp",
          "type": "uint256"
        }
      ],
      "payable": false,
      "stateMutability": "pure",
      "type": "function"
    },
    {
      "constant": true,
      "inputs": [
        {
          "name": "year",
          "type": "uint16"
        },
        {
          "name": "month",
          "type": "uint8"
        },
        {
          "name": "day",
          "type": "uint8"
        },
        {
          "name": "hour",
          "type": "uint8"
        }
      ],
      "name": "toTimestamp",
      "outputs": [
        {
          "name": "timestamp",
          "type": "uint256"
        }
      ],
      "payable": false,
      "stateMutability": "pure",
      "type": "function"
    },
    {
      "constant": true,
      "inputs": [
        {
          "name": "year",
          "type": "uint16"
        },
        {
          "name": "month",
          "type": "uint8"
        },
        {
          "name": "day",
          "type": "uint8"
        },
        {
          "name": "hour",
          "type": "uint8"
        },
        {
          "name": "minute",
          "type": "uint8"
        }
      ],
      "name": "toTimestamp",
      "outputs": [
        {
          "name": "timestamp",
          "type": "uint256"
        }
      ],
      "payable": false,
      "stateMutability": "pure",
      "type": "function"
    },
    {
      "constant": true,
      "inputs": [
        {
          "name": "year",
          "type": "uint16"
        },
        {
          "name": "month",
          "type": "uint8"
        },
        {
          "name": "day",
          "type": "uint8"
        },
        {
          "name": "hour",
          "type": "uint8"
        },
        {
          "name": "minute",
          "type": "uint8"
        },
        {
          "name": "second",
          "type": "uint8"
        }
      ],
      "name": "toTimestamp",
      "outputs": [
        {
          "name": "timestamp",
          "type": "uint256"
        }
      ],
      "payable": false,
      "stateMutability": "pure",
      "type": "function"
    }
  ],
  "bytecode": "0x608060405234801561001057600080fd5b50610883806100206000396000f3006080604052600436106100cf5763ffffffff7c01000000000000000000000000000000000000000000000000000000006000350416633e239e1a81146100d45780634ac1ad781461010257806362ba96871461011a57806365c72840146101605780637f791833146101785780638aa001fc146101a65780638c8d98a0146101be5780639054bdec146101e657806392d6631314610220578063a324ad241461024f578063a6f0e57714610267578063b199993714610297578063b238ad0e146102af578063fa93f883146102d1575b600080fd5b3480156100e057600080fd5b506100ec6004356102e9565b6040805160ff9092168252519081900360200190f35b34801561010e57600080fd5b506100ec600435610306565b34801561012657600080fd5b5061014e61ffff6004351660ff60243581169060443581169060643581169060843516610318565b60408051918252519081900360200190f35b34801561016c57600080fd5b506100ec600435610333565b34801561018457600080fd5b5061014e61ffff6004351660ff60243581169060443581169060643516610348565b3480156101b257600080fd5b506100ec600435610362565b3480156101ca57600080fd5b5061014e61ffff6004351660ff6024358116906044351661036c565b3480156101f257600080fd5b5061014e61ffff6004351660ff60243581169060443581169060643581169060843581169060a43516610386565b34801561022c57600080fd5b506102386004356104cc565b6040805161ffff9092168252519081900360200190f35b34801561025b57600080fd5b506100ec60043561055c565b34801561027357600080fd5b5061028361ffff60043516610571565b604080519115158252519081900360200190f35b3480156102a357600080fd5b5061014e6004356105bf565b3480156102bb57600080fd5b506100ec60ff6004351661ffff602435166105da565b3480156102dd57600080fd5b506100ec6004356106a2565b60006018603c8084045b048115156102fd57fe5b0690505b919050565b600060076004620151808404016102fd565b600061032986868686866000610386565b9695505050505050565b600061033e826106ad565b6040015192915050565b600061035985858585600080610386565b95945050505050565b6000603c826102fd565b600061037e8484846000806000610386565b949350505050565b6000806103916107fb565b6107b291505b8861ffff168261ffff1610156103d8576103b082610571565b156103c3576301e28500830192506103cd565b6301e13380830192505b600190910190610397565b601f81526103e589610571565b156103f657601d60208201526103fe565b601c60208201525b601f60408201819052601e606083018190526080830182905260a0830181905260c0830182905260e0830182905261010083018190526101208301829052610140830152610160820152600191505b8760ff168261ffff16101561048e578061ffff600019840116600c811061047057fe5b602002015160ff16620151800283019250818060010192505061044d565b6001870360ff166201518002830192508560ff16610e1002830192508460ff16603c02830192508360ff168301925082925050509695505050505050565b6000806107b26301e13380840481019082906104e7906105bf565b6104f48361ffff166105bf565b039050806301e285000283019250806107b2830361ffff16036301e1338002830192505b848311156105545761052c60018303610571565b1561053f576301e2850083039250610549565b6301e13380830392505b600182039150610518565b509392505050565b6000610567826106ad565b6020015192915050565b6000600382161561058457506000610301565b606461ffff83160661ffff161561059d57506001610301565b61019061ffff83160661ffff16156105b757506000610301565b506001919050565b60001901600061019082046064830460048404030192915050565b60008260ff16600114806105f157508260ff166003145b806105ff57508260ff166005145b8061060d57508260ff166007145b8061061b57508260ff166008145b8061062957508260ff16600a145b8061063757508260ff16600c145b156106445750601f61069c565b8260ff166004148061065957508260ff166006145b8061066757508260ff166009145b8061067557508260ff16600b145b156106825750601e61069c565b61068b82610571565b156106985750601d61069c565b50601c5b92915050565b6000603c80836102f3565b6106b561081b565b60008080806106c3866104cc565b61ffff1685526106d46107b26105bf565b85516106e39061ffff166105bf565b039250826301e285000284019350826107b286600001510361ffff16036301e133800284019350600191505b600c60ff831611610759576107288286600001516105da565b60ff166201518002905085848201111561074a5760ff82166020860152610759565b9283019260019091019061070f565b600191505b610770856020015186600001516105da565b60ff168260ff161115156107ad578584620151800111156107995760ff821660408601526107ad565b62015180939093019260019091019061075e565b6107b6866102e9565b60ff1660608601526107c7866106a2565b60ff1660808601526107d886610362565b60ff1660a08601526107e986610306565b60ff1660c08601525092949350505050565b61018060405190810160405280600c906020820280388339509192915050565b6040805160e081018252600080825260208201819052918101829052606081018290526080810182905260a0810182905260c0810191909152905600a165627a7a72305820c75f03e83d052f3dff0f9392c2a7d1d9a6e0abef9aa33bfe1a3c3acfdd77ad050029",
  "source": "pragma solidity ^0.4.23;\r\n\r\ncontract DateTime {\r\n  /*\r\n   *  Date and Time utilities for ethereum contracts\r\n   *\r\n   */\r\n  struct _DateTime {\r\n    uint16 year;\r\n    uint8 month;\r\n    uint8 day;\r\n    uint8 hour;\r\n    uint8 minute;\r\n    uint8 second;\r\n    uint8 weekday;\r\n  }\r\n\r\n  uint constant DAY_IN_SECONDS = 86400;\r\n  uint constant YEAR_IN_SECONDS = 31536000;\r\n  uint constant LEAP_YEAR_IN_SECONDS = 31622400;\r\n\r\n  uint constant HOUR_IN_SECONDS = 3600;\r\n  uint constant MINUTE_IN_SECONDS = 60;\r\n\r\n  uint16 constant ORIGIN_YEAR = 1970;\r\n\r\n  function isLeapYear(uint16 year) public pure returns (bool) {\r\n    if (year % 4 != 0) {\r\n      return false;\r\n    }\r\n    if (year % 100 != 0) {\r\n      return true;\r\n    }\r\n    if (year % 400 != 0) {\r\n      return false;\r\n    }\r\n    return true;\r\n  }\r\n\r\n  function leapYearsBefore(uint year) public pure returns (uint) {\r\n    year -= 1;\r\n    return year / 4 - year / 100 + year / 400;\r\n  }\r\n\r\n  function getDaysInMonth(uint8 month, uint16 year) public pure returns (uint8) {\r\n    if (month == 1 || month == 3 || month == 5 || month == 7 || month == 8 || month == 10 || month == 12) {\r\n      return 31;\r\n    }\r\n    else if (month == 4 || month == 6 || month == 9 || month == 11) {\r\n      return 30;\r\n    }\r\n    else if (isLeapYear(year)) {\r\n      return 29;\r\n    }\r\n    else {\r\n      return 28;\r\n    }\r\n  }\r\n\r\n  function parseTimestamp(uint timestamp) internal pure returns (_DateTime dt) {\r\n    uint secondsAccountedFor = 0;\r\n    uint buf;\r\n    uint8 i;\r\n\r\n    // Year\r\n    dt.year = getYear(timestamp);\r\n    buf = leapYearsBefore(dt.year) - leapYearsBefore(ORIGIN_YEAR);\r\n\r\n    secondsAccountedFor += LEAP_YEAR_IN_SECONDS * buf;\r\n    secondsAccountedFor += YEAR_IN_SECONDS * (dt.year - ORIGIN_YEAR - buf);\r\n\r\n    // Month\r\n    uint secondsInMonth;\r\n    for (i = 1; i <= 12; i++) {\r\n      secondsInMonth = DAY_IN_SECONDS * getDaysInMonth(i, dt.year);\r\n      if (secondsInMonth + secondsAccountedFor > timestamp) {\r\n        dt.month = i;\r\n        break;\r\n      }\r\n      secondsAccountedFor += secondsInMonth;\r\n    }\r\n\r\n    // Day\r\n    for (i = 1; i <= getDaysInMonth(dt.month, dt.year); i++) {\r\n      if (DAY_IN_SECONDS + secondsAccountedFor > timestamp) {\r\n        dt.day = i;\r\n        break;\r\n      }\r\n      secondsAccountedFor += DAY_IN_SECONDS;\r\n    }\r\n\r\n    // Hour\r\n    dt.hour = getHour(timestamp);\r\n\r\n    // Minute\r\n    dt.minute = getMinute(timestamp);\r\n\r\n    // Second\r\n    dt.second = getSecond(timestamp);\r\n\r\n    // Day of week.\r\n    dt.weekday = getWeekday(timestamp);\r\n  }\r\n\r\n  function getYear(uint timestamp) public pure returns (uint16) {\r\n    uint secondsAccountedFor = 0;\r\n    uint16 year;\r\n    uint numLeapYears;\r\n\r\n    // Year\r\n    year = uint16(ORIGIN_YEAR + timestamp / YEAR_IN_SECONDS);\r\n    numLeapYears = leapYearsBefore(year) - leapYearsBefore(ORIGIN_YEAR);\r\n\r\n    secondsAccountedFor += LEAP_YEAR_IN_SECONDS * numLeapYears;\r\n    secondsAccountedFor += YEAR_IN_SECONDS * (year - ORIGIN_YEAR - numLeapYears);\r\n\r\n    while (secondsAccountedFor > timestamp) {\r\n      if (isLeapYear(uint16(year - 1))) {\r\n        secondsAccountedFor -= LEAP_YEAR_IN_SECONDS;\r\n      }\r\n      else {\r\n        secondsAccountedFor -= YEAR_IN_SECONDS;\r\n      }\r\n      year -= 1;\r\n    }\r\n    return year;\r\n  }\r\n\r\n  function getMonth(uint timestamp) public pure returns (uint8) {\r\n    return parseTimestamp(timestamp).month;\r\n  }\r\n\r\n  function getDay(uint timestamp) public pure returns (uint8) {\r\n    return parseTimestamp(timestamp).day;\r\n  }\r\n\r\n  function getHour(uint timestamp) public pure returns (uint8) {\r\n    return uint8((timestamp / 60 / 60) % 24);\r\n  }\r\n\r\n  function getMinute(uint timestamp) public pure returns (uint8) {\r\n    return uint8((timestamp / 60) % 60);\r\n  }\r\n\r\n  function getSecond(uint timestamp) public pure returns (uint8) {\r\n    return uint8(timestamp % 60);\r\n  }\r\n\r\n  function getWeekday(uint timestamp) public pure returns (uint8) {\r\n    return uint8((timestamp / DAY_IN_SECONDS + 4) % 7);\r\n  }\r\n\r\n  function toTimestamp(uint16 year, uint8 month, uint8 day) public pure returns (uint timestamp) {\r\n    return toTimestamp(year, month, day, 0, 0, 0);\r\n  }\r\n\r\n  function toTimestamp(uint16 year, uint8 month, uint8 day, uint8 hour) public pure returns (uint timestamp) {\r\n    return toTimestamp(year, month, day, hour, 0, 0);\r\n  }\r\n\r\n  function toTimestamp(uint16 year, uint8 month, uint8 day, uint8 hour, uint8 minute) public pure returns (uint timestamp) {\r\n    return toTimestamp(year, month, day, hour, minute, 0);\r\n  }\r\n\r\n  function toTimestamp(uint16 year, uint8 month, uint8 day, uint8 hour, uint8 minute, uint8 second) public pure returns (uint timestamp) {\r\n    uint16 i;\r\n\r\n    // Year\r\n    for (i = ORIGIN_YEAR; i < year; i++) {\r\n      if (isLeapYear(i)) {\r\n        timestamp += LEAP_YEAR_IN_SECONDS;\r\n      }\r\n      else {\r\n        timestamp += YEAR_IN_SECONDS;\r\n      }\r\n    }\r\n\r\n    // Month\r\n    uint8[12] memory monthDayCounts;\r\n    monthDayCounts[0] = 31;\r\n    if (isLeapYear(year)) {\r\n      monthDayCounts[1] = 29;\r\n    }\r\n    else {\r\n      monthDayCounts[1] = 28;\r\n    }\r\n    monthDayCounts[2] = 31;\r\n    monthDayCounts[3] = 30;\r\n    monthDayCounts[4] = 31;\r\n    monthDayCounts[5] = 30;\r\n    monthDayCounts[6] = 31;\r\n    monthDayCounts[7] = 31;\r\n    monthDayCounts[8] = 30;\r\n    monthDayCounts[9] = 31;\r\n    monthDayCounts[10] = 30;\r\n    monthDayCounts[11] = 31;\r\n\r\n    for (i = 1; i < month; i++) {\r\n      timestamp += DAY_IN_SECONDS * monthDayCounts[i - 1];\r\n    }\r\n\r\n    // Day\r\n    timestamp += DAY_IN_SECONDS * (day - 1);\r\n\r\n    // Hour\r\n    timestamp += HOUR_IN_SECONDS * (hour);\r\n\r\n    // Minute\r\n    timestamp += MINUTE_IN_SECONDS * (minute);\r\n\r\n    // Second\r\n    timestamp += second;\r\n\r\n    return timestamp;\r\n  }\r\n}\r\n",
  "sourcePath": "C:\\git\\asure-dapp\\packages\\smartcontracts\\contracts\\DateTime.sol",
  "compiler": {
    "name": "solc",
    "version": "0.4.24+commit.e67f0147.Emscripten.clang"
  },
  "schemaVersion": "2.0.1",
  "updatedAt": "2018-08-14T10:50:59.107Z"
}