{
  "contractName": "PensionRegistry",
  "abi": [
    {
      "constant": false,
      "inputs": [],
      "name": "renounceOwnership",
      "outputs": [],
      "payable": false,
      "stateMutability": "nonpayable",
      "type": "function"
    },
    {
      "constant": true,
      "inputs": [],
      "name": "owner",
      "outputs": [
        {
          "name": "",
          "type": "address"
        }
      ],
      "payable": false,
      "stateMutability": "view",
      "type": "function"
    },
    {
      "constant": false,
      "inputs": [
        {
          "name": "_newOwner",
          "type": "address"
        }
      ],
      "name": "transferOwnership",
      "outputs": [],
      "payable": false,
      "stateMutability": "nonpayable",
      "type": "function"
    },
    {
      "anonymous": false,
      "inputs": [
        {
          "indexed": true,
          "name": "previousOwner",
          "type": "address"
        }
      ],
      "name": "OwnershipRenounced",
      "type": "event"
    },
    {
      "anonymous": false,
      "inputs": [
        {
          "indexed": true,
          "name": "previousOwner",
          "type": "address"
        },
        {
          "indexed": true,
          "name": "newOwner",
          "type": "address"
        }
      ],
      "name": "OwnershipTransferred",
      "type": "event"
    },
    {
      "constant": true,
      "inputs": [
        {
          "name": "_contract",
          "type": "uint8"
        }
      ],
      "name": "getContract",
      "outputs": [
        {
          "name": "_addr",
          "type": "address"
        }
      ],
      "payable": false,
      "stateMutability": "view",
      "type": "function"
    },
    {
      "constant": false,
      "inputs": [
        {
          "name": "_contract",
          "type": "uint8"
        },
        {
          "name": "_addr",
          "type": "address"
        }
      ],
      "name": "setContract",
      "outputs": [
        {
          "name": "_success",
          "type": "bool"
        }
      ],
      "payable": false,
      "stateMutability": "nonpayable",
      "type": "function"
    },
    {
      "constant": false,
      "inputs": [
        {
          "name": "_contracts",
          "type": "uint8[]"
        },
        {
          "name": "_addrs",
          "type": "address[]"
        }
      ],
      "name": "setContracts",
      "outputs": [
        {
          "name": "_success",
          "type": "bool"
        }
      ],
      "payable": false,
      "stateMutability": "nonpayable",
      "type": "function"
    }
  ],
  "bytecode": "0x608060405260008054600160a060020a031916331790556105bb806100256000396000f3006080604052600436106100775763ffffffff7c01000000000000000000000000000000000000000000000000000000006000350416630e232e2b811461007c578063715018a61461011e578063865e6fd3146101355780638da5cb5b14610169578063de981f1b146101a7578063f2fde38b146101c2575b600080fd5b34801561008857600080fd5b506040805160206004803580820135838102808601850190965280855261010a95369593946024949385019291829185019084908082843750506040805187358901803560208181028481018201909552818452989b9a9989019892975090820195509350839250850190849080828437509497506101f09650505050505050565b604080519115158252519081900360200190f35b34801561012a57600080fd5b50610133610353565b005b34801561014157600080fd5b5061010a60ff6004351673ffffffffffffffffffffffffffffffffffffffff602435166103d9565b34801561017557600080fd5b5061017e610460565b6040805173ffffffffffffffffffffffffffffffffffffffff9092168252519081900360200190f35b3480156101b357600080fd5b5061017e60ff6004351661047c565b3480156101ce57600080fd5b5061013373ffffffffffffffffffffffffffffffffffffffff600435166104bb565b60008054819073ffffffffffffffffffffffffffffffffffffffff16331461021757600080fd5b82518451146102ad57604080517f08c379a000000000000000000000000000000000000000000000000000000000815260206004820152602b60248201527f5f636f6e74726163747320616e64205f61646472206d757374206265206f662060448201527f73616d65206c656e677468000000000000000000000000000000000000000000606482015290519081900360840190fd5b5060005b82518110156103495782818151811015156102c857fe5b906020019060200201516002600086848151811015156102e457fe5b9060200190602002015160048111156102f957fe5b81526020810191909152604001600020805473ffffffffffffffffffffffffffffffffffffffff191673ffffffffffffffffffffffffffffffffffffffff929092169190911790556001016102b1565b5060019392505050565b60005473ffffffffffffffffffffffffffffffffffffffff16331461037757600080fd5b6000805460405173ffffffffffffffffffffffffffffffffffffffff909116917ff8df31144d9c2f0f6b59d69b8b98abd5459d07f2742c4df920b25aae33c6482091a26000805473ffffffffffffffffffffffffffffffffffffffff19169055565b6000805473ffffffffffffffffffffffffffffffffffffffff1633146103fe57600080fd5b816002600085600481111561040f57fe5b81526020810191909152604001600020805473ffffffffffffffffffffffffffffffffffffffff191673ffffffffffffffffffffffffffffffffffffffff9290921691909117905550600192915050565b60005473ffffffffffffffffffffffffffffffffffffffff1681565b60006002600083600481111561048e57fe5b815260208101919091526040016000205473ffffffffffffffffffffffffffffffffffffffff1692915050565b60005473ffffffffffffffffffffffffffffffffffffffff1633146104df57600080fd5b6104e8816104eb565b50565b73ffffffffffffffffffffffffffffffffffffffff8116151561050d57600080fd5b6000805460405173ffffffffffffffffffffffffffffffffffffffff808516939216917f8be0079c531659141344cd1fd0a4f28419497f9722a3daafe3b4186f6b6457e091a36000805473ffffffffffffffffffffffffffffffffffffffff191673ffffffffffffffffffffffffffffffffffffffff929092169190911790555600a165627a7a723058205cf3f1d4d1774ad7d7b25200d8a1092dafcbe47116ceca30e6a81ce90f8d20290029",
  "source": "pragma solidity ^0.4.23;\r\n\r\nimport 'openzeppelin-solidity/contracts/ownership/Ownable.sol';\r\nimport \"./PensionLib.sol\";\r\n\r\ncontract PensionRegistry is Ownable {\r\n  address pensionPoints;\r\n  mapping(uint => address) contracts;\r\n\r\n  function getContract(PensionLib.ContractType _contract) public view returns (address _addr) {\r\n    return contracts[uint(_contract)];\r\n  }\r\n\r\n  function setContract(PensionLib.ContractType _contract, address _addr) onlyOwner public returns (bool _success) {\r\n    contracts[uint(_contract)] = _addr;\r\n    return true;\r\n  }\r\n\r\n  function setContracts(PensionLib.ContractType[] _contracts, address[] _addrs) onlyOwner public returns (bool _success) {\r\n    require(_contracts.length == _addrs.length, \"_contracts and _addr must be of same length\");\r\n\r\n    for (uint i = 0; i < _addrs.length; i++) {\r\n      contracts[uint(_contracts[i])] = _addrs[i];\r\n    }\r\n\r\n    return true;\r\n  }\r\n}\r\n",
  "sourcePath": "C:\\git\\german-pension\\packages\\smartcontracts\\contracts\\PensionRegistry.sol",
  "compiler": {
    "name": "solc",
    "version": "0.4.24+commit.e67f0147.Emscripten.clang"
  },
  "schemaVersion": "2.0.1",
  "updatedAt": "2018-08-13T17:59:00.118Z"
}