{
  "contractName": "PensionWallet",
  "abi": [
    {
      "inputs": [
        {
          "name": "_pensionRegistryAddr",
          "type": "address"
        },
        {
          "name": "_erc20",
          "type": "address"
        },
        {
          "name": "_dateTime",
          "type": "address"
        }
      ],
      "payable": false,
      "stateMutability": "nonpayable",
      "type": "constructor",
      "signature": "constructor"
    },
    {
      "payable": true,
      "stateMutability": "payable",
      "type": "fallback"
    },
    {
      "constant": true,
      "inputs": [],
      "name": "totalAmount",
      "outputs": [
        {
          "name": "",
          "type": "uint256"
        }
      ],
      "payable": false,
      "stateMutability": "view",
      "type": "function",
      "signature": "0x1a39d8ef"
    },
    {
      "constant": false,
      "inputs": [
        {
          "name": "_users",
          "type": "address[]"
        },
        {
          "name": "_years",
          "type": "uint16[]"
        },
        {
          "name": "_months",
          "type": "uint8[]"
        },
        {
          "name": "_amounts",
          "type": "uint256[]"
        }
      ],
      "name": "depositMany",
      "outputs": [
        {
          "name": "_success",
          "type": "bool"
        }
      ],
      "payable": false,
      "stateMutability": "nonpayable",
      "type": "function",
      "signature": "0x92cbead8"
    },
    {
      "constant": false,
      "inputs": [
        {
          "name": "_user",
          "type": "address"
        },
        {
          "name": "_year",
          "type": "uint16"
        },
        {
          "name": "_month",
          "type": "uint8"
        },
        {
          "name": "_amount",
          "type": "uint256"
        }
      ],
      "name": "deposit",
      "outputs": [
        {
          "name": "_success",
          "type": "bool"
        }
      ],
      "payable": false,
      "stateMutability": "nonpayable",
      "type": "function",
      "signature": "0x8a857083"
    },
    {
      "constant": true,
      "inputs": [
        {
          "name": "_user",
          "type": "address"
        }
      ],
      "name": "amountOf",
      "outputs": [
        {
          "name": "_pensionAmount",
          "type": "uint256"
        }
      ],
      "payable": false,
      "stateMutability": "view",
      "type": "function",
      "signature": "0x01608f5f"
    },
    {
      "constant": false,
      "inputs": [
        {
          "name": "_user",
          "type": "address"
        }
      ],
      "name": "withdraw",
      "outputs": [
        {
          "name": "_success",
          "type": "bool"
        }
      ],
      "payable": false,
      "stateMutability": "nonpayable",
      "type": "function",
      "signature": "0x51cff8d9"
    }
  ],
  "bytecode": "0x608060405234801561001057600080fd5b5060405160608061149083398101604090815281516020830151919092015160008054600160a060020a0319908116600160a060020a0395861617825560018054821694861694909417909355600280549093169390911692909217905561141290819061007e90396000f30060806040526004361061006c5763ffffffff7c010000000000000000000000000000000000000000000000000000000060003504166301608f5f81146100715780631a39d8ef146100a457806351cff8d9146100b95780638a857083146100ee57806392cbead81461011f575b600080fd5b34801561007d57600080fd5b50610092600160a060020a036004351661021f565b60408051918252519081900360200190f35b3480156100b057600080fd5b5061009261080f565b3480156100c557600080fd5b506100da600160a060020a0360043516610815565b604080519115158252519081900360200190f35b3480156100fa57600080fd5b506100da600160a060020a036004351661ffff6024351660ff60443516606435610f9d565b34801561012b57600080fd5b50604080516020600480358082013583810280860185019096528085526100da95369593946024949385019291829185019084908082843750506040805187358901803560208181028481018201909552818452989b9a998901989297509082019550935083925085019084908082843750506040805187358901803560208181028481018201909552818452989b9a998901989297509082019550935083925085019084908082843750506040805187358901803560208181028481018201909552818452989b9a9989019892975090820195509350839250850190849080828437509497506111959650505050505050565b600080808080808080808080600160a060020a038c1633146102a257604080517f08c379a000000000000000000000000000000000000000000000000000000000815260206004820152601b60248201527f5f75736572206d75737420657175616c206d73672e73656e6465720000000000604482015290519081900360640190fd5b6000546040517fde981f1b000000000000000000000000000000000000000000000000000000008152600160a060020a039091169063de981f1b90600290600401808260ff168152602001915050602060405180830381600087803b15801561030a57600080fd5b505af115801561031e573d6000803e3d6000fd5b505050506040513d602081101561033457600080fd5b5051604080517fcfe62c5c000000000000000000000000000000000000000000000000000000008152600160a060020a038f811660048301529151929c50908c169163cfe62c5c916024808201926020929091908290030181600087803b15801561039e57600080fd5b505af11580156103b2573d6000803e3d6000fd5b505050506040513d60208110156103c857600080fd5b5051600254604080517f92d66313000000000000000000000000000000000000000000000000000000008152600481018490529051929b50600160a060020a03909116916392d66313916024808201926020929091908290030181600087803b15801561043457600080fd5b505af1158015610448573d6000803e3d6000fd5b505050506040513d602081101561045e57600080fd5b5051600254604080517fa324ad24000000000000000000000000000000000000000000000000000000008152600481018d90529051929a50600160a060020a039091169163a324ad24916024808201926020929091908290030181600087803b1580156104ca57600080fd5b505af11580156104de573d6000803e3d6000fd5b505050506040513d60208110156104f457600080fd5b5051600254604080517f92d66313000000000000000000000000000000000000000000000000000000008152426004820152905160ff909316995061ffff600c8c02168a019850600160a060020a03909116916392d66313916024808201926020929091908290030181600087803b15801561056f57600080fd5b505af1158015610583573d6000803e3d6000fd5b505050506040513d602081101561059957600080fd5b5051600254604080517fa324ad240000000000000000000000000000000000000000000000000000000081524260048201529051929750600160a060020a039091169163a324ad24916024808201926020929091908290030181600087803b15801561060457600080fd5b505af1158015610618573d6000803e3d6000fd5b505050506040513d602081101561062e57600080fd5b5051600160a060020a038d16600090815260036020908152604080832060ff948516600c8b0261ffff1681018086529190935292205490965090945016156106795760009a50610800565b6000546040517fde981f1b000000000000000000000000000000000000000000000000000000008152600160a060020a039091169063de981f1b90600390600401808260ff168152602001915050602060405180830381600087803b1580156106e157600080fd5b505af11580156106f5573d6000803e3d6000fd5b505050506040513d602081101561070b57600080fd5b50519150600090505b858311801561074b5750600160a060020a038c1660009081526003602090815260408083206000198701845290915290205460ff16155b156107fc57604080517ffceec015000000000000000000000000000000000000000000000000000000008152600160a060020a038e8116600483015261ffff600c6000199790970196870416602483015291519184169163fceec015916044808201926020929091908290030181600087803b1580156107ca57600080fd5b505af11580156107de573d6000803e3d6000fd5b505050506040513d60208110156107f457600080fd5b505101610714565b809a505b50505050505050505050919050565b60045490565b600080808080808080808080600160a060020a038c16331461089857604080517f08c379a000000000000000000000000000000000000000000000000000000000815260206004820152601b60248201527f5f75736572206d75737420657175616c206d73672e73656e6465720000000000604482015290519081900360640190fd5b6000546040517fde981f1b000000000000000000000000000000000000000000000000000000008152600160a060020a039091169063de981f1b90600290600401808260ff168152602001915050602060405180830381600087803b15801561090057600080fd5b505af1158015610914573d6000803e3d6000fd5b505050506040513d602081101561092a57600080fd5b5051604080517fcfe62c5c000000000000000000000000000000000000000000000000000000008152600160a060020a038f811660048301529151929c50908c169163cfe62c5c916024808201926020929091908290030181600087803b15801561099457600080fd5b505af11580156109a8573d6000803e3d6000fd5b505050506040513d60208110156109be57600080fd5b5051600254604080517f92d66313000000000000000000000000000000000000000000000000000000008152600481018490529051929b50600160a060020a03909116916392d66313916024808201926020929091908290030181600087803b158015610a2a57600080fd5b505af1158015610a3e573d6000803e3d6000fd5b505050506040513d6020811015610a5457600080fd5b5051600254604080517fa324ad24000000000000000000000000000000000000000000000000000000008152600481018d90529051929a50600160a060020a039091169163a324ad24916024808201926020929091908290030181600087803b158015610ac057600080fd5b505af1158015610ad4573d6000803e3d6000fd5b505050506040513d6020811015610aea57600080fd5b5051600254604080517f92d66313000000000000000000000000000000000000000000000000000000008152426004820152905160ff909316995061ffff600c8c02168a019850600160a060020a03909116916392d66313916024808201926020929091908290030181600087803b158015610b6557600080fd5b505af1158015610b79573d6000803e3d6000fd5b505050506040513d6020811015610b8f57600080fd5b5051600254604080517fa324ad240000000000000000000000000000000000000000000000000000000081524260048201529051929750600160a060020a039091169163a324ad24916024808201926020929091908290030181600087803b158015610bfa57600080fd5b505af1158015610c0e573d6000803e3d6000fd5b505050506040513d6020811015610c2457600080fd5b5051600160a060020a038d16600090815260036020908152604080832060ff948516600c8b0261ffff168101808652919093529220549096509094501615610c6f5760009a50610800565b6000546040517fde981f1b000000000000000000000000000000000000000000000000000000008152600160a060020a039091169063de981f1b90600390600401808260ff168152602001915050602060405180830381600087803b158015610cd757600080fd5b505af1158015610ceb573d6000803e3d6000fd5b505050506040513d6020811015610d0157600080fd5b50519150600090505b8583118015610d415750600160a060020a038c1660009081526003602090815260408083206000198701845290915290205460ff16155b15610e2057604080517ffceec015000000000000000000000000000000000000000000000000000000008152600160a060020a038e8116600483015261ffff600c6000199790970196870416602483015291519184169163fceec015916044808201926020929091908290030181600087803b158015610dc057600080fd5b505af1158015610dd4573d6000803e3d6000fd5b505050506040513d6020811015610dea57600080fd5b5051600160a060020a038d1660009081526003602090815260408083208784529091529020805460ff1916600117905501610d0a565b600454811115610eb757604080517f08c379a000000000000000000000000000000000000000000000000000000000815260206004820152602e60248201527f746f74616c416d6f756e74206d7573742062652067726561746572207468656e60448201527f2070656e73696f6e416d6f756e74000000000000000000000000000000000000606482015290519081900360840190fd5b8015610f8b5780600460008282540392505081905550600160009054906101000a9004600160a060020a0316600160a060020a031663a9059cbb8d836040518363ffffffff167c01000000000000000000000000000000000000000000000000000000000281526004018083600160a060020a0316600160a060020a0316815260200182815260200192505050602060405180830381600087803b158015610f5e57600080fd5b505af1158015610f72573d6000803e3d6000fd5b505050506040513d6020811015610f8857600080fd5b50505b5060019b9a5050505050505050505050565b600154604080517f23b872dd0000000000000000000000000000000000000000000000000000000081523360048201523060248201526044810184905290516000928392600160a060020a03909116916323b872dd9160648082019260209290919082900301818787803b15801561101457600080fd5b505af1158015611028573d6000803e3d6000fd5b505050506040513d602081101561103e57600080fd5b5050600080546040517fde981f1b000000000000000000000000000000000000000000000000000000008152600160a060020a039091169163de981f1b91600401808260ff168152602001915050602060405180830381600087803b1580156110a657600080fd5b505af11580156110ba573d6000803e3d6000fd5b505050506040513d60208110156110d057600080fd5b5051604080517fab549c2a000000000000000000000000000000000000000000000000000000008152600160a060020a03898116600483015261ffff8916602483015260ff881660448301526064820187905291519293509083169163ab549c2a916084808201926020929091908290030181600087803b15801561115457600080fd5b505af1158015611168573d6000803e3d6000fd5b505050506040513d602081101561117e57600080fd5b505060048054840190556001915050949350505050565b6000808451865114151561123057604080517f08c379a000000000000000000000000000000000000000000000000000000000815260206004820152602160248201527f616c6c20617272617973206d757374206265206f662073616d65206c656e677460448201527f6800000000000000000000000000000000000000000000000000000000000000606482015290519081900360840190fd5b83518651146112c657604080517f08c379a000000000000000000000000000000000000000000000000000000000815260206004820152602160248201527f616c6c20617272617973206d757374206265206f662073616d65206c656e677460448201527f6800000000000000000000000000000000000000000000000000000000000000606482015290519081900360840190fd5b825186511461135c57604080517f08c379a000000000000000000000000000000000000000000000000000000000815260206004820152602160248201527f616c6c20617272617973206d757374206265206f662073616d65206c656e677460448201527f6800000000000000000000000000000000000000000000000000000000000000606482015290519081900360840190fd5b5060005b85518110156113da576113d1868281518110151561137a57fe5b90602001906020020151868381518110151561139257fe5b9060200190602002015186848151811015156113aa57fe5b9060200190602002015186858151811015156113c257fe5b90602001906020020151610f9d565b50600101611360565b506001959450505050505600a165627a7a723058201ea3658750c1583aeb3cb873532d2e12c0f103972bf080f2909df4130b8adc400029",
  "source": "pragma solidity ^0.4.23;\r\n\r\nimport 'openzeppelin-solidity/contracts/token/ERC20/ERC20.sol';\r\n\r\nimport \"./PensionRegistry.sol\";\r\nimport \"./PensionPoints.sol\";\r\nimport \"./Pension.sol\";\r\nimport \"./PensionLib.sol\";\r\nimport \"./DateTime.sol\";\r\n\r\ncontract PensionWallet {\r\n  PensionRegistry registry;\r\n  ERC20 token;\r\n  DateTime dateTime;\r\n  mapping(address => mapping(uint => bool)) paidPensions;\r\n  uint256 totalAmount_;\r\n\r\n  /**\r\n  * @dev Total number of amount in existence\r\n  */\r\n  function totalAmount() public view returns (uint256) {\r\n    return totalAmount_;\r\n  }\r\n\r\n  constructor(address _pensionRegistryAddr, address _erc20, address _dateTime) public {\r\n    registry = PensionRegistry(_pensionRegistryAddr);\r\n    token = ERC20(_erc20);\r\n    dateTime = DateTime(_dateTime);\r\n  }\r\n\r\n  function() public payable {\r\n    revert();\r\n  }\r\n\r\n  function depositMany(address[] _users, uint16[] _years, uint8[] _months, uint256[] _amounts) public returns (bool _success) {\r\n    require(_users.length == _years.length, \"all arrays must be of same length\");\r\n    require(_users.length == _months.length, \"all arrays must be of same length\");\r\n    require(_users.length == _amounts.length, \"all arrays must be of same length\");\r\n\r\n    for (uint i = 0; i < _users.length; i++) {\r\n      deposit(_users[i], _years[i], _months[i], _amounts[i]);\r\n    }\r\n\r\n    return true;\r\n  }\r\n\r\n  function deposit(address _user, uint16 _year, uint8 _month, uint256 _amount) public returns (bool _success) {\r\n    token.transferFrom(msg.sender, this, _amount);\r\n\r\n    PensionPoints points = PensionPoints(registry.getContract(PensionLib.ContractType.PensionPoints));\r\n    points.payTo(_user, _year, _month, _amount);\r\n    totalAmount_ += _amount;\r\n\r\n    return true;\r\n  }\r\n\r\n  function amountOf(address _user) public view returns (uint256 _pensionAmount) {\r\n    require(_user == msg.sender, \"_user must equal msg.sender\");\r\n\r\n    PensionUsers pensionUsers = PensionUsers(registry.getContract(PensionLib.ContractType.PensionUsers));\r\n    uint256 pensionDate = pensionUsers.getUserPensionDate(_user);\r\n\r\n    uint16 minYear = dateTime.getYear(pensionDate);\r\n    uint minMonth = dateTime.getMonth(pensionDate);\r\n    uint256 min = (minYear * 12 + minMonth);\r\n\r\n    uint16 maxYear = dateTime.getYear(now);\r\n    uint maxMonth = dateTime.getMonth(now);\r\n    uint256 max = (maxYear * 12 + maxMonth);\r\n\r\n    if (paidPensions[_user][max]) {\r\n      return 0;\r\n    }\r\n\r\n    Pension pension = Pension(registry.getContract(PensionLib.ContractType.Pension));\r\n    uint256 pensionAmount = 0;\r\n\r\n    while (max > min && !paidPensions[_user][max - 1]) {\r\n      max--;\r\n\r\n      pensionAmount += pension.pensionOf(_user, uint16(max / 12));\r\n    }\r\n\r\n    return pensionAmount;\r\n  }\r\n\r\n  function withdraw(address _user) public returns (bool _success) {\r\n    require(_user == msg.sender, \"_user must equal msg.sender\");\r\n\r\n    PensionUsers pensionUsers = PensionUsers(registry.getContract(PensionLib.ContractType.PensionUsers));\r\n    uint256 pensionDate = pensionUsers.getUserPensionDate(_user);\r\n\r\n    uint16 minYear = dateTime.getYear(pensionDate);\r\n    uint minMonth = dateTime.getMonth(pensionDate);\r\n    uint256 min = (minYear * 12 + minMonth);\r\n\r\n    uint16 maxYear = dateTime.getYear(now);\r\n    uint maxMonth = dateTime.getMonth(now);\r\n    uint256 max = (maxYear * 12 + maxMonth);\r\n\r\n    if (paidPensions[_user][max]) {\r\n      return false;\r\n    }\r\n\r\n    Pension pension = Pension(registry.getContract(PensionLib.ContractType.Pension));\r\n    uint256 pensionAmount = 0;\r\n    while (max > min && !paidPensions[_user][max - 1]) {\r\n      max--;\r\n\r\n      pensionAmount += pension.pensionOf(_user, uint16(max / 12));\r\n      paidPensions[_user][max] = true;\r\n    }\r\n\r\n    // TODO: if we do not have enough, we have to get it from somewhere (e.g. the goverment)\r\n    require(totalAmount_ >= pensionAmount, \"totalAmount must be greater then pensionAmount\");\r\n    if (pensionAmount != 0) {\r\n      totalAmount_ -= pensionAmount;\r\n      token.transfer(_user, pensionAmount);\r\n    }\r\n\r\n    return true;\r\n  }\r\n}\r\n",
  "sourcePath": "C:\\git\\asure-dapp\\packages\\smartcontracts\\contracts\\PensionWallet.sol",
  "compiler": {
    "name": "solc",
    "version": "0.4.24+commit.e67f0147.Emscripten.clang"
  },
  "schemaVersion": "3.0.0-beta.0",
  "updatedAt": "2018-08-27T16:27:34.687Z"
}