{
  "contractName": "Pension",
  "abi": [
    {
      "constant": false,
      "inputs": [],
      "name": "renounceOwnership",
      "outputs": [],
      "payable": false,
      "stateMutability": "nonpayable",
      "type": "function"
    },
    {
      "constant": true,
      "inputs": [],
      "name": "owner",
      "outputs": [
        {
          "name": "",
          "type": "address"
        }
      ],
      "payable": false,
      "stateMutability": "view",
      "type": "function"
    },
    {
      "constant": false,
      "inputs": [
        {
          "name": "_newOwner",
          "type": "address"
        }
      ],
      "name": "transferOwnership",
      "outputs": [],
      "payable": false,
      "stateMutability": "nonpayable",
      "type": "function"
    },
    {
      "inputs": [
        {
          "name": "_pensionRegistryAddr",
          "type": "address"
        }
      ],
      "payable": false,
      "stateMutability": "nonpayable",
      "type": "constructor"
    },
    {
      "anonymous": false,
      "inputs": [
        {
          "indexed": true,
          "name": "previousOwner",
          "type": "address"
        }
      ],
      "name": "OwnershipRenounced",
      "type": "event"
    },
    {
      "anonymous": false,
      "inputs": [
        {
          "indexed": true,
          "name": "previousOwner",
          "type": "address"
        },
        {
          "indexed": true,
          "name": "newOwner",
          "type": "address"
        }
      ],
      "name": "OwnershipTransferred",
      "type": "event"
    },
    {
      "constant": true,
      "inputs": [
        {
          "name": "_user",
          "type": "address"
        },
        {
          "name": "year",
          "type": "uint16"
        }
      ],
      "name": "pensionOf",
      "outputs": [
        {
          "name": "amount",
          "type": "uint256"
        }
      ],
      "payable": false,
      "stateMutability": "view",
      "type": "function"
    },
    {
      "constant": true,
      "inputs": [
        {
          "name": "_user",
          "type": "address"
        }
      ],
      "name": "expectedPensionOf",
      "outputs": [
        {
          "name": "amount",
          "type": "uint256"
        }
      ],
      "payable": false,
      "stateMutability": "view",
      "type": "function"
    },
    {
      "constant": true,
      "inputs": [
        {
          "name": "_accessYear",
          "type": "uint16"
        },
        {
          "name": "_actualYear",
          "type": "uint16"
        },
        {
          "name": "_actualPensionPoints",
          "type": "uint256"
        },
        {
          "name": "_yearlyIncome",
          "type": "uint256"
        },
        {
          "name": "_accessFactor",
          "type": "uint256"
        },
        {
          "name": "_pensionTypeFactor",
          "type": "uint256"
        }
      ],
      "name": "calculatePension",
      "outputs": [
        {
          "name": "amount",
          "type": "uint256"
        }
      ],
      "payable": false,
      "stateMutability": "view",
      "type": "function"
    },
    {
      "constant": true,
      "inputs": [
        {
          "name": "_actualYear",
          "type": "uint16"
        },
        {
          "name": "_yearlyIncome",
          "type": "uint256"
        }
      ],
      "name": "calculatePensionPoints",
      "outputs": [
        {
          "name": "amount",
          "type": "uint256"
        }
      ],
      "payable": false,
      "stateMutability": "view",
      "type": "function"
    }
  ],
  "bytecode": "0x608060405234801561001057600080fd5b50604051602080610d86833981016040525160008054600160a060020a0319908116331790915560018054600160a060020a0390931692909116919091179055610d278061005f6000396000f3006080604052600436106100825763ffffffff7c010000000000000000000000000000000000000000000000000000000060003504166370d63a828114610087578063715018a6146100c757806380c29358146100de5780638376a295146100ff5780638da5cb5b1461011e578063f2fde38b1461014f578063fceec01514610170575b600080fd5b34801561009357600080fd5b506100b561ffff6004358116906024351660443560643560843560a435610198565b60408051918252519081900360200190f35b3480156100d357600080fd5b506100dc610386565b005b3480156100ea57600080fd5b506100b5600160a060020a03600435166103f2565b34801561010b57600080fd5b506100b561ffff600435166024356106ed565b34801561012a57600080fd5b50610133610824565b60408051600160a060020a039092168252519081900360200190f35b34801561015b57600080fd5b506100dc600160a060020a0360043516610833565b34801561017c57600080fd5b506100b5600160a060020a036004351661ffff60243516610856565b60018054604051600080516020610cdc833981519152815260009283928392839283928392600160a060020a039091169163de981f1b91600401808260ff168152602001915050602060405180830381600087803b1580156101f957600080fd5b505af115801561020d573d6000803e3d6000fd5b505050506040513d602081101561022357600080fd5b5051604080517f4421721200000000000000000000000000000000000000000000000000000000815261ffff8f1660048201529051919650600160a060020a038716916344217212916024808201926020929091908290030181600087803b15801561028e57600080fd5b505af11580156102a2573d6000803e3d6000fd5b505050506040513d60208110156102b857600080fd5b5051604080517f971910190000000000000000000000000000000000000000000000000000000081526107ee60048201529051919550600160a060020a038716916397191019916024808201926020929091908290030181600087803b15801561032157600080fd5b505af1158015610335573d6000803e3d6000fd5b505050506040513d602081101561034b57600080fd5b50519250826103e88a0281151561035e57fe5b04915089828c8e0361ffff160201905083878983020202955050505050509695505050505050565b600054600160a060020a0316331461039d57600080fd5b60008054604051600160a060020a03909116917ff8df31144d9c2f0f6b59d69b8b98abd5459d07f2742c4df920b25aae33c6482091a26000805473ffffffffffffffffffffffffffffffffffffffff19169055565b600154604051600080516020610cdc83398151915281526000918291829182918291829182918291600160a060020a039091169063de981f1b90600290600401808260ff168152602001915050602060405180830381600087803b15801561045957600080fd5b505af115801561046d573d6000803e3d6000fd5b505050506040513d602081101561048357600080fd5b505160018054604051600080516020610cdc8339815191528152929950600160a060020a03169163de981f1b9190600401808260ff168152602001915050602060405180830381600087803b1580156104db57600080fd5b505af11580156104ef573d6000803e3d6000fd5b505050506040513d602081101561050557600080fd5b5051604080517f4b20f2e9000000000000000000000000000000000000000000000000000000008152600160a060020a038c811660048301529151929850610fa097506064965090891691634b20f2e9916024808201926020929091908290030181600087803b15801561057857600080fd5b505af115801561058c573d6000803e3d6000fd5b505050506040513d60208110156105a257600080fd5b50516040517f20ccd9a2000000000000000000000000000000000000000000000000000000008152909350600160a060020a038716906320ccd9a2908590600401808260008111156105f057fe5b60ff168152602001915050602060405180830381600087803b15801561061557600080fd5b505af1158015610629573d6000803e3d6000fd5b505050506040513d602081101561063f57600080fd5b5051604080517f442172120000000000000000000000000000000000000000000000000000000081526107f860048201529051919350600160a060020a038816916344217212916024808201926020929091908290030181600087803b1580156106a857600080fd5b505af11580156106bc573d6000803e3d6000fd5b505050506040513d60208110156106d257600080fd5b505193909402029091026402540be400029695505050505050565b60018054604051600080516020610cdc833981519152815260009283928392600160a060020a039091169163de981f1b91600401808260ff168152602001915050602060405180830381600087803b15801561074857600080fd5b505af115801561075c573d6000803e3d6000fd5b505050506040513d602081101561077257600080fd5b5051604080517f9719101900000000000000000000000000000000000000000000000000000000815261ffff881660048201529051919350600160a060020a038416916397191019916024808201926020929091908290030181600087803b1580156107dd57600080fd5b505af11580156107f1573d6000803e3d6000fd5b505050506040513d602081101561080757600080fd5b50519050806103e8850281151561081a57fe5b0495945050505050565b600054600160a060020a031681565b600054600160a060020a0316331461084a57600080fd5b61085381610c5e565b50565b600154604051600080516020610cdc83398151915281526000918291829182918291829182918291600160a060020a039091169063de981f1b90600290600401808260ff168152602001915050602060405180830381600087803b1580156108bd57600080fd5b505af11580156108d1573d6000803e3d6000fd5b505050506040513d60208110156108e757600080fd5b5051600154604051600080516020610cdc8339815191528152919850600160a060020a03169063de981f1b90600090600401808260ff168152602001915050602060405180830381600087803b15801561094057600080fd5b505af1158015610954573d6000803e3d6000fd5b505050506040513d602081101561096a57600080fd5b505160018054604051600080516020610cdc8339815191528152929850600160a060020a03169163de981f1b9190600401808260ff168152602001915050602060405180830381600087803b1580156109c257600080fd5b505af11580156109d6573d6000803e3d6000fd5b505050506040513d60208110156109ec57600080fd5b5051604080517fcf6a4403000000000000000000000000000000000000000000000000000000008152600160a060020a038d8116600483015291519297509088169163cf6a4403916024808201926020929091908290030181600087803b158015610a5657600080fd5b505af1158015610a6a573d6000803e3d6000fd5b505050506040513d6020811015610a8057600080fd5b5051604080517f4b20f2e9000000000000000000000000000000000000000000000000000000008152600160a060020a038d81166004830152915192965060649550818816926320ccd9a2928b1691634b20f2e99160248083019260209291908290030181600087803b158015610af657600080fd5b505af1158015610b0a573d6000803e3d6000fd5b505050506040513d6020811015610b2057600080fd5b50516040517c010000000000000000000000000000000000000000000000000000000063ffffffff841602815260040180826000811115610b5d57fe5b60ff168152602001915050602060405180830381600087803b158015610b8257600080fd5b505af1158015610b96573d6000803e3d6000fd5b505050506040513d6020811015610bac57600080fd5b5051604080517f4421721200000000000000000000000000000000000000000000000000000000815261ffff8c1660048201529051919350600160a060020a038716916344217212916024808201926020929091908290030181600087803b158015610c1757600080fd5b505af1158015610c2b573d6000803e3d6000fd5b505050506040513d6020811015610c4157600080fd5b505162989680939094029190910290920204979650505050505050565b600160a060020a0381161515610c7357600080fd5b60008054604051600160a060020a03808516939216917f8be0079c531659141344cd1fd0a4f28419497f9722a3daafe3b4186f6b6457e091a36000805473ffffffffffffffffffffffffffffffffffffffff1916600160a060020a03929092169190911790555600de981f1b00000000000000000000000000000000000000000000000000000000a165627a7a72305820a7071571a09be70a991deadfb49be99b4838a54454074572a92e0ee9a1946dbe0029",
  "source": "pragma solidity ^0.4.23;\r\n\r\nimport 'openzeppelin-solidity/contracts/ownership/Ownable.sol';\r\n\r\nimport \"./PensionRegistry.sol\";\r\nimport \"./PensionPoints.sol\";\r\nimport \"./PensionSettings.sol\";\r\nimport \"./PensionUsers.sol\";\r\n\r\ncontract Pension is Ownable {\r\n  PensionRegistry registry;\r\n\r\n  constructor(address _pensionRegistryAddr) public {\r\n    registry = PensionRegistry(_pensionRegistryAddr);\r\n  }\r\n\r\n  function pensionOf(address _user, uint16 year) public view returns (uint256 amount) {\r\n    PensionUsers users = PensionUsers(registry.getContract(PensionLib.ContractType.PensionUsers));\r\n    PensionPoints points = PensionPoints(registry.getContract(PensionLib.ContractType.PensionPoints));\r\n    PensionSettings settings = PensionSettings(registry.getContract(PensionLib.ContractType.PensionSettings));\r\n\r\n    uint256 ep = points.pointsOf(_user); //40000\r\n    uint256 zf = 100;\r\n    uint256 raf = settings.getPensionFactor(users.getUserPensionType(_user));\r\n    uint256 arw = settings.getPensionAmount(year);\r\n\r\n    // EP * ZF * RAF * aRW\r\n    //40 * 1 * 1 * 20\r\n    //40000 * 100 * 100 * 20*10**18\r\n\r\n    return ep * zf * raf * arw / 10**7;\r\n  }\r\n\r\n  function expectedPensionOf(address _user) public view returns (uint256 amount) {\r\n    PensionUsers users = PensionUsers(registry.getContract(PensionLib.ContractType.PensionUsers));\r\n    PensionSettings settings = PensionSettings(registry.getContract(PensionLib.ContractType.PensionSettings));\r\n\r\n    uint256 ep = 4000; //4000\r\n    uint256 zf = 100;\r\n    PensionLib.PensionType pt = users.getUserPensionType(_user);\r\n    uint256 raf = settings.getPensionFactor(pt);\r\n    uint256 arw = settings.getPensionAmount(2040);\r\n\r\n    // EP * ZF * RAF * aRW\r\n    //40 * 1 * 1 * 20\r\n    //4000 * 100 * 100 * 2000\r\n\r\n    return ep * zf * raf * arw * 10**10;\r\n  }\r\n\r\n\r\n  function calculatePension(uint16 _accessYear, uint16 _actualYear, uint256 _actualPensionPoints, uint256 _yearlyIncome, uint256 _accessFactor, uint256 _pensionTypeFactor) public view returns (uint256 amount) {\r\n    PensionSettings settings = PensionSettings(registry.getContract(PensionLib.ContractType.PensionSettings));\r\n\r\n    uint256 _pensionPointValue = settings.getPensionAmount(_accessYear);\r\n\r\n    //TODO: calculate yearlyPensionPoints\r\n    uint256 _averageIncome = settings.getAverageIncomeByYear(2030);\r\n\r\n    uint256 _yearlyPensionPoints = _yearlyIncome*(10**3) / _averageIncome; //TODO: (getPointsByYearForAmount) we have to calculate the average income for every year until retirement starts\r\n\r\n    uint256 _calculatedPensionPoints = ((_accessYear - _actualYear) * _yearlyPensionPoints) + _actualPensionPoints;\r\n\r\n    return _calculatedPensionPoints * _accessFactor * _pensionTypeFactor * _pensionPointValue; //TODO: AccessFactor has to be calculated within smart contract (accessAge - actualAge)\r\n  }\r\n\r\n  function calculatePensionPoints(uint16 _actualYear, uint256 _yearlyIncome) public view returns (uint256 amount) {\r\n    PensionSettings settings = PensionSettings(registry.getContract(PensionLib.ContractType.PensionSettings));\r\n\r\n    uint256 _averageIncome = settings.getAverageIncomeByYear(_actualYear);\r\n\r\n    return  _yearlyIncome*(10**3) / _averageIncome;\r\n  }\r\n}\r\n",
  "sourcePath": "C:\\git\\asure-dapp\\packages\\smartcontracts\\contracts\\Pension.sol",
  "compiler": {
    "name": "solc",
    "version": "0.4.24+commit.e67f0147.Emscripten.clang"
  },
  "schemaVersion": "2.0.1",
  "updatedAt": "2018-08-13T20:29:40.842Z"
}