{
  "contractName": "PensionSettings",
  "abi": [
    {
      "constant": true,
      "inputs": [
        {
          "name": "_pensionType",
          "type": "uint8"
        }
      ],
      "name": "getPensionFactor",
      "outputs": [
        {
          "name": "",
          "type": "uint256"
        }
      ],
      "payable": false,
      "stateMutability": "pure",
      "type": "function"
    },
    {
      "constant": true,
      "inputs": [
        {
          "name": "_year",
          "type": "uint16"
        }
      ],
      "name": "getPensionAmount",
      "outputs": [
        {
          "name": "",
          "type": "uint256"
        }
      ],
      "payable": false,
      "stateMutability": "view",
      "type": "function"
    },
    {
      "constant": true,
      "inputs": [
        {
          "name": "_year",
          "type": "uint16"
        }
      ],
      "name": "getPensionSalaryPercentage",
      "outputs": [
        {
          "name": "",
          "type": "uint256"
        }
      ],
      "payable": false,
      "stateMutability": "pure",
      "type": "function"
    },
    {
      "constant": true,
      "inputs": [
        {
          "name": "_year",
          "type": "uint16"
        }
      ],
      "name": "getAverageIncomeByYear",
      "outputs": [
        {
          "name": "",
          "type": "uint256"
        }
      ],
      "payable": false,
      "stateMutability": "pure",
      "type": "function"
    },
    {
      "constant": true,
      "inputs": [],
      "name": "getPensionPointPrecision",
      "outputs": [
        {
          "name": "_precision",
          "type": "uint256"
        }
      ],
      "payable": false,
      "stateMutability": "pure",
      "type": "function"
    }
  ],
  "bytecode": "0x608060405234801561001057600080fd5b50610163806100206000396000f30060806040526004361061006c5763ffffffff7c010000000000000000000000000000000000000000000000000000000060003504166320ccd9a28114610071578063442172121461009e578063961a04fa146100ba57806397191019146100cf578063a66fbd0e146100eb575b600080fd5b34801561007d57600080fd5b5061008c60ff60043516610107565b60408051918252519081900360200190f35b3480156100aa57600080fd5b5061008c61ffff6004351661010d565b3480156100c657600080fd5b5061008c61011b565b3480156100db57600080fd5b5061008c61ffff60043516610121565b3480156100f757600080fd5b5061008c61ffff60043516610130565b50606490565b5068019274b259f654000090565b6103e890565b5069065a4da25d3016c0000090565b50610744905600a165627a7a723058205788551ddba6ff68e9939b801be216456093a288e5bb5d04ad73d4d55ee00fad0029",
  "source": "pragma solidity ^0.4.23;\r\n\r\nimport \"./PensionLib.sol\";\r\n\r\ncontract PensionSettings {\r\n  function getPensionFactor(PensionLib.PensionType _pensionType) public pure returns (uint256) {\r\n    //scaled to 100%\r\n    return 100;\r\n  }\r\n\r\n  //TODO: rename to \"getPensionPointValue\"\r\n  function getPensionAmount(uint16 _year) public view returns (uint256) {\r\n    return 29*10**18;\r\n  }\r\n\r\n  function getPensionSalaryPercentage(uint16 _year) public pure returns (uint256) {\r\n    //18,6 % //scaled to 100%\r\n    return 1860;\r\n  }\r\n\r\n  //TODO: \"Income\" or \"Salary\".\r\n  function getAverageIncomeByYear(uint16 _year) public pure returns (uint256) {\r\n    return (2500 * 10 ** 18) * 12;\r\n  }\r\n\r\n  function getPensionPointPrecision() public pure returns (uint _precision){\r\n    return 1000;\r\n  }\r\n}\r\n",
  "sourcePath": "C:\\git\\asure-dapp\\packages\\smartcontracts\\contracts\\PensionSettings.sol",
  "compiler": {
    "name": "solc",
    "version": "0.4.24+commit.e67f0147.Emscripten.clang"
  },
  "schemaVersion": "2.0.1",
  "updatedAt": "2018-08-13T20:29:40.834Z"
}