{
  "contractName": "PensionUsers",
  "abi": [
    {
      "constant": true,
      "inputs": [
        {
          "name": "",
          "type": "uint256"
        }
      ],
      "name": "userList",
      "outputs": [
        {
          "name": "",
          "type": "address"
        }
      ],
      "payable": false,
      "stateMutability": "view",
      "type": "function",
      "signature": "0x9f4216e8"
    },
    {
      "constant": true,
      "inputs": [
        {
          "name": "_user",
          "type": "address"
        }
      ],
      "name": "isUser",
      "outputs": [
        {
          "name": "_isIndeed",
          "type": "bool"
        }
      ],
      "payable": false,
      "stateMutability": "view",
      "type": "function",
      "signature": "0x4209fff1"
    },
    {
      "constant": false,
      "inputs": [
        {
          "name": "_user",
          "type": "address"
        },
        {
          "name": "_birthDate",
          "type": "int256"
        },
        {
          "name": "_pensionDate",
          "type": "uint256"
        }
      ],
      "name": "registerUser",
      "outputs": [
        {
          "name": "success",
          "type": "bool"
        }
      ],
      "payable": false,
      "stateMutability": "nonpayable",
      "type": "function",
      "signature": "0x70d280c0"
    },
    {
      "constant": false,
      "inputs": [
        {
          "name": "_user",
          "type": "address"
        }
      ],
      "name": "unregisterUser",
      "outputs": [
        {
          "name": "_success",
          "type": "bool"
        }
      ],
      "payable": false,
      "stateMutability": "nonpayable",
      "type": "function",
      "signature": "0x21f2ca3b"
    },
    {
      "constant": true,
      "inputs": [],
      "name": "getStats",
      "outputs": [
        {
          "name": "_totalUsers",
          "type": "uint256"
        },
        {
          "name": "_totalPensioners",
          "type": "uint256"
        }
      ],
      "payable": false,
      "stateMutability": "view",
      "type": "function",
      "signature": "0xc59d4847"
    },
    {
      "constant": true,
      "inputs": [],
      "name": "getTotalPensioners",
      "outputs": [
        {
          "name": "_totalPensioners",
          "type": "uint256"
        }
      ],
      "payable": false,
      "stateMutability": "view",
      "type": "function",
      "signature": "0x96c2522c"
    },
    {
      "constant": true,
      "inputs": [],
      "name": "getTotalUsers",
      "outputs": [
        {
          "name": "_totalUsers",
          "type": "uint256"
        }
      ],
      "payable": false,
      "stateMutability": "view",
      "type": "function",
      "signature": "0x9be572f6"
    },
    {
      "constant": false,
      "inputs": [
        {
          "name": "_user",
          "type": "address"
        },
        {
          "name": "_birthDate",
          "type": "int256"
        },
        {
          "name": "_pensionDate",
          "type": "uint256"
        },
        {
          "name": "_type",
          "type": "uint8"
        }
      ],
      "name": "updateUser",
      "outputs": [
        {
          "name": "_success",
          "type": "bool"
        }
      ],
      "payable": false,
      "stateMutability": "nonpayable",
      "type": "function",
      "signature": "0x383b495f"
    },
    {
      "constant": true,
      "inputs": [
        {
          "name": "_user",
          "type": "address"
        }
      ],
      "name": "getUserPensionDate",
      "outputs": [
        {
          "name": "_pensionDate",
          "type": "uint256"
        }
      ],
      "payable": false,
      "stateMutability": "view",
      "type": "function",
      "signature": "0xcfe62c5c"
    },
    {
      "constant": false,
      "inputs": [
        {
          "name": "_user",
          "type": "address"
        },
        {
          "name": "_pensionDate",
          "type": "uint256"
        }
      ],
      "name": "setUserPensionDate",
      "outputs": [
        {
          "name": "_success",
          "type": "bool"
        }
      ],
      "payable": false,
      "stateMutability": "nonpayable",
      "type": "function",
      "signature": "0xdeeb532f"
    },
    {
      "constant": true,
      "inputs": [
        {
          "name": "_user",
          "type": "address"
        }
      ],
      "name": "isPensioner",
      "outputs": [
        {
          "name": "_isPensioner",
          "type": "bool"
        }
      ],
      "payable": false,
      "stateMutability": "view",
      "type": "function",
      "signature": "0xaad87691"
    },
    {
      "constant": false,
      "inputs": [
        {
          "name": "_user",
          "type": "address"
        },
        {
          "name": "_isPensioner",
          "type": "bool"
        }
      ],
      "name": "setUserPensioner",
      "outputs": [
        {
          "name": "_success",
          "type": "bool"
        }
      ],
      "payable": false,
      "stateMutability": "nonpayable",
      "type": "function",
      "signature": "0x017fd2df"
    },
    {
      "constant": true,
      "inputs": [
        {
          "name": "_user",
          "type": "address"
        }
      ],
      "name": "getUserBirthDate",
      "outputs": [
        {
          "name": "_birthDate",
          "type": "int256"
        }
      ],
      "payable": false,
      "stateMutability": "view",
      "type": "function",
      "signature": "0xbc2c74a4"
    },
    {
      "constant": false,
      "inputs": [
        {
          "name": "_user",
          "type": "address"
        },
        {
          "name": "_birthDate",
          "type": "int256"
        }
      ],
      "name": "setUserBirthDate",
      "outputs": [
        {
          "name": "_success",
          "type": "bool"
        }
      ],
      "payable": false,
      "stateMutability": "nonpayable",
      "type": "function",
      "signature": "0xcf76537d"
    },
    {
      "constant": true,
      "inputs": [
        {
          "name": "_user",
          "type": "address"
        }
      ],
      "name": "getUserPensionType",
      "outputs": [
        {
          "name": "_pensionType",
          "type": "uint8"
        }
      ],
      "payable": false,
      "stateMutability": "pure",
      "type": "function",
      "signature": "0x4b20f2e9"
    },
    {
      "constant": false,
      "inputs": [
        {
          "name": "_user",
          "type": "address"
        },
        {
          "name": "_type",
          "type": "uint8"
        }
      ],
      "name": "setUserPensionType",
      "outputs": [
        {
          "name": "_success",
          "type": "bool"
        }
      ],
      "payable": false,
      "stateMutability": "nonpayable",
      "type": "function",
      "signature": "0xe918400a"
    }
  ],
  "bytecode": "0x608060405234801561001057600080fd5b506108d0806100206000396000f3006080604052600436106100e55763ffffffff7c0100000000000000000000000000000000000000000000000000000000600035041663017fd2df81146100ea57806321f2ca3b14610124578063383b495f146101455780634209fff1146101725780634b20f2e91461019357806370d280c0146101d857806396c2522c146101ff5780639be572f6146102265780639f4216e81461023b578063aad876911461026f578063bc2c74a414610290578063c59d4847146102b1578063cf76537d146102df578063cfe62c5c14610303578063deeb532f14610324578063e918400a14610348575b600080fd5b3480156100f657600080fd5b50610110600160a060020a0360043516602435151561036f565b604080519115158252519081900360200190f35b34801561013057600080fd5b50610110600160a060020a036004351661040b565b34801561015157600080fd5b50610110600160a060020a036004351660243560443560ff6064351661052d565b34801561017e57600080fd5b50610110600160a060020a03600435166105a8565b34801561019f57600080fd5b506101b4600160a060020a0360043516610605565b604051808260008111156101c457fe5b60ff16815260200191505060405180910390f35b3480156101e457600080fd5b50610110600160a060020a036004351660243560443561060b565b34801561020b57600080fd5b506102146106a6565b60408051918252519081900360200190f35b34801561023257600080fd5b506102146106ad565b34801561024757600080fd5b506102536004356106b3565b60408051600160a060020a039092168252519081900360200190f35b34801561027b57600080fd5b50610110600160a060020a03600435166106db565b34801561029c57600080fd5b50610214600160a060020a03600435166106fc565b3480156102bd57600080fd5b506102c6610717565b6040805192835260208301919091528051918290030190f35b3480156102eb57600080fd5b50610110600160a060020a0360043516602435610732565b34801561030f57600080fd5b50610214600160a060020a036004351661077e565b34801561033057600080fd5b50610110600160a060020a036004351660243561079c565b34801561035457600080fd5b50610110600160a060020a036004351660ff602435166107ee565b600061037a836105a8565b151561038557600080fd5b600160a060020a03831660009081526020819052604090206002015460ff16151582151514156103b757506000610405565b816103cd576002805460001981019091556103d9565b60028054600181019091555b5050600160a060020a0382166000908152602081905260409020600201805460ff191682151517905560015b92915050565b6000808033600160a060020a0385161461042457600080fd5b61042d846105a8565b151561043857600080fd5b600160a060020a0384166000908152602081905260409020600301546001805491935090600019810190811061046a57fe5b60009182526020909120015460018054600160a060020a03909216925082918490811061049357fe5b6000918252602080832091909101805473ffffffffffffffffffffffffffffffffffffffff1916600160a060020a039485161790559183168152908190526040902060030182905560018054906104ee90600019830161085d565b50505050600160a060020a03166000908152602081905260408120818155600180820183905560028201805461ffff1916905560039091019190915590565b600033600160a060020a0386161461054457600080fd5b61054d856105a8565b151561055857600080fd5b600160a060020a0385166000908152602081905260408120858155600181018590556002018054849261ff00199091169061010090849081111561059857fe5b0217905550600195945050505050565b60015460009015156105bc57506000610600565b600160a060020a0382166000818152602081905260409020600301546001805490919081106105e757fe5b600091825260209091200154600160a060020a03161490505b919050565b50600090565b6000610616846105a8565b1561062057600080fd5b50600160a060020a0392909216600081815260208190526040902091825560018083019390935560028201805461ff0019169055825480840184557fb10e2d527612073b26eecdfd717e6a320cf44b4afac2b0732d9fcbe2b7fa0cf68101805473ffffffffffffffffffffffffffffffffffffffff191690921790915560039091015590565b6002545b90565b60015490565b60018054829081106106c157fe5b600091825260209091200154600160a060020a0316905081565b600160a060020a031660009081526020819052604090206002015460ff1690565b600160a060020a031660009081526020819052604090205490565b6000806107226106ad565b61072a6106a6565b915091509091565b600033600160a060020a0384161461074957600080fd5b610752836105a8565b151561075d57600080fd5b50600160a060020a0391909116600090815260208190526040902055600190565b600160a060020a031660009081526020819052604090206001015490565b600033600160a060020a038416146107b357600080fd5b6107bc836105a8565b15156107c757600080fd5b50600160a060020a0382166000908152602081905260409020600190810182905592915050565b600033600160a060020a0384161461080557600080fd5b61080e836105a8565b151561081957600080fd5b600160a060020a03831660009081526020819052604081206002018054849261ff00199091169061010090849081111561084f57fe5b021790555060019392505050565b81548183558181111561088157600083815260209020610881918101908301610886565b505050565b6106aa91905b808211156108a0576000815560010161088c565b50905600a165627a7a72305820603e95e817e6e39ef6895ced6121d6ec8c450f92826ef8d6496d83b77514f9350029",
  "source": "pragma solidity ^0.4.23;\r\n\r\nimport \"./PensionLib.sol\";\r\n//https://ethereum.stackexchange.com/questions/13167/are-there-well-solved-and-simple-storage-patterns-for-solidity\r\n\r\ncontract PensionUsers {\r\n  mapping(address => PensionLib.UserData) userData;\r\n  address[] public userList;\r\n  uint256 totalPensioners;\r\n\r\n  function isUser(address _user) public constant returns (bool _isIndeed) {\r\n    if (userList.length == 0) return false;\r\n    return (userList[userData[_user].listPointer] == _user);\r\n  }\r\n\r\n  /*\r\n   * Management functions\r\n   */\r\n\r\n  function registerUser(address _user, int256 _birthDate, uint256 _pensionDate) public returns (bool success) {\r\n    // TODO: Should only be callable by the user itself?\r\n    //require(msg.sender == _user);\r\n    require(!isUser(_user));\r\n\r\n    userData[_user].birthDate = _birthDate;\r\n    userData[_user].pensionDate = _pensionDate;\r\n    userData[_user].pensionType = PensionLib.PensionType.Default;\r\n\r\n    userData[_user].listPointer = userList.push(_user) - 1;\r\n    return true;\r\n  }\r\n\r\n  function unregisterUser(address _user) public returns (bool _success) {\r\n    require(msg.sender == _user);\r\n    require(isUser(_user));\r\n\r\n    uint rowToDelete = userData[_user].listPointer;\r\n    address keyToMove = userList[userList.length - 1];\r\n    userList[rowToDelete] = keyToMove;\r\n    userData[keyToMove].listPointer = rowToDelete;\r\n    userList.length--;\r\n    delete userData[_user];\r\n    return true;\r\n  }\r\n\r\n  /*\r\n   * Global functions\r\n   */\r\n\r\n  function getStats() public constant returns (uint256 _totalUsers, uint256 _totalPensioners) {\r\n    return (getTotalUsers(), getTotalPensioners());\r\n  }\r\n\r\n  function getTotalPensioners() public constant returns (uint256 _totalPensioners) {\r\n    return totalPensioners;\r\n  }\r\n\r\n  function getTotalUsers() public constant returns (uint _totalUsers) {\r\n    return userList.length;\r\n  }\r\n\r\n  /*\r\n   * User functions\r\n   */\r\n\r\n  function updateUser(address _user, int256 _birthDate, uint256 _pensionDate, PensionLib.PensionType _type) public returns (bool _success) {\r\n    require(msg.sender == _user);\r\n    require(isUser(_user));\r\n\r\n    userData[_user].birthDate = _birthDate;\r\n    userData[_user].pensionDate = _pensionDate;\r\n    userData[_user].pensionType = _type;\r\n\r\n    return true;\r\n  }\r\n\r\n  function getUserPensionDate(address _user) public view returns (uint256 _pensionDate) {\r\n    return userData[_user].pensionDate;\r\n  }\r\n\r\n  function setUserPensionDate(address _user, uint256 _pensionDate) public returns (bool _success) {\r\n    require(msg.sender == _user);\r\n    require(isUser(_user));\r\n\r\n    userData[_user].pensionDate = _pensionDate;\r\n    return true;\r\n  }\r\n\r\n  function isPensioner(address _user) public view returns (bool _isPensioner) {\r\n    return userData[_user].isPensioner;\r\n  }\r\n\r\n  function setUserPensioner(address _user, bool _isPensioner) public returns (bool _success) {\r\n    // TODO: Should only be callable by the user itself or also by the PensionWallet?\r\n    //require(msg.sender == _user);\r\n    require(isUser(_user));\r\n\r\n    if (userData[_user].isPensioner == _isPensioner) {\r\n      return false;\r\n    }\r\n\r\n    _isPensioner ? totalPensioners++ : totalPensioners--;\r\n    userData[_user].isPensioner = _isPensioner;\r\n    return true;\r\n  }\r\n\r\n  function getUserBirthDate(address _user) public view returns (int256 _birthDate) {\r\n    return userData[_user].birthDate;\r\n  }\r\n\r\n  function setUserBirthDate(address _user, int256 _birthDate) public returns (bool _success) {\r\n    require(msg.sender == _user);\r\n    require(isUser(_user));\r\n\r\n    userData[_user].birthDate = _birthDate;\r\n    return true;\r\n  }\r\n\r\n  function getUserPensionType(address _user) public pure returns (PensionLib.PensionType _pensionType) {\r\n    return PensionLib.PensionType.Default;\r\n  }\r\n\r\n  function setUserPensionType(address _user, PensionLib.PensionType _type) public returns (bool _success) {\r\n    require(msg.sender == _user);\r\n    require(isUser(_user));\r\n\r\n    userData[_user].pensionType = _type;\r\n    return true;\r\n  }\r\n}\r\n",
  "sourcePath": "C:\\git\\asure-dapp\\packages\\smartcontracts\\contracts\\PensionUsers.sol",
  "compiler": {
    "name": "solc",
    "version": "0.4.24+commit.e67f0147.Emscripten.clang"
  },
  "schemaVersion": "3.0.0-beta.0",
  "updatedAt": "2018-08-27T16:27:34.678Z"
}