{
  "contractName": "PensionSettings",
  "abi": [
    {
      "constant": true,
      "inputs": [
        {
          "name": "_pensionType",
          "type": "uint8"
        }
      ],
      "name": "getPensionFactor",
      "outputs": [
        {
          "name": "",
          "type": "uint256"
        }
      ],
      "payable": false,
      "stateMutability": "pure",
      "type": "function"
    },
    {
      "constant": true,
      "inputs": [
        {
          "name": "_year",
          "type": "uint16"
        }
      ],
      "name": "getPensionAmount",
      "outputs": [
        {
          "name": "",
          "type": "uint256"
        }
      ],
      "payable": false,
      "stateMutability": "view",
      "type": "function"
    },
    {
      "constant": true,
      "inputs": [
        {
          "name": "_year",
          "type": "uint16"
        }
      ],
      "name": "getPensionSalaryPercentage",
      "outputs": [
        {
          "name": "",
          "type": "uint256"
        }
      ],
      "payable": false,
      "stateMutability": "pure",
      "type": "function"
    },
    {
      "constant": true,
      "inputs": [
        {
          "name": "_year",
          "type": "uint16"
        }
      ],
      "name": "getAverageIncomeByYear",
      "outputs": [
        {
          "name": "",
          "type": "uint256"
        }
      ],
      "payable": false,
      "stateMutability": "pure",
      "type": "function"
    },
    {
      "constant": true,
      "inputs": [],
      "name": "getPensionPointPrecision",
      "outputs": [
        {
          "name": "_precision",
          "type": "uint256"
        }
      ],
      "payable": false,
      "stateMutability": "pure",
      "type": "function"
    },
    {
      "constant": true,
      "inputs": [
        {
          "name": "_year",
          "type": "uint16"
        }
      ],
      "name": "getMaxPensionPointsByYear",
      "outputs": [
        {
          "name": "_maxYearlyPensionPoints",
          "type": "uint256"
        }
      ],
      "payable": false,
      "stateMutability": "pure",
      "type": "function"
    }
  ],
  "bytecode": "0x608060405234801561001057600080fd5b50610191806100206000396000f3006080604052600436106100775763ffffffff7c010000000000000000000000000000000000000000000000000000000060003504166302f1ec02811461007c57806320ccd9a2146100aa57806344217212146100c5578063961a04fa146100e157806397191019146100f6578063a66fbd0e14610112575b600080fd5b34801561008857600080fd5b5061009861ffff6004351661012e565b60408051918252519081900360200190f35b3480156100b657600080fd5b5061009860ff60043516610135565b3480156100d157600080fd5b5061009861ffff6004351661013b565b3480156100ed57600080fd5b50610098610149565b34801561010257600080fd5b5061009861ffff6004351661014f565b34801561011e57600080fd5b5061009861ffff6004351661015e565b506107d090565b50606490565b5068019274b259f654000090565b6103e890565b5069065a4da25d3016c0000090565b50610744905600a165627a7a7230582025743826b49383183ee27dfd9f4994bce23037714aeb33c124aeafdf58d19da40029",
  "source": "pragma solidity ^0.4.23;\n\nimport \"./PensionLib.sol\";\n\ncontract PensionSettings {\n  function getPensionFactor(PensionLib.PensionType _pensionType) public pure returns (uint256) {\n    //scaled to 100%\n    return 100;\n  }\n\n  //TODO: rename to \"getPensionPointValue\"\n  function getPensionAmount(uint16 _year) public view returns (uint256) {\n    return 29*10**18;\n  }\n\n  function getPensionSalaryPercentage(uint16 _year) public pure returns (uint256) {\n    //18,6 % //scaled to 100%\n    return 1860;\n  }\n\n  //TODO: \"Income\" or \"Salary\".\n  function getAverageIncomeByYear(uint16 _year) public pure returns (uint256) {\n    return (2500 * 10 ** 18) * 12;\n  }\n\n  function getPensionPointPrecision() public pure returns (uint _precision){\n    return 1000;\n  }\n\n  function getMaxPensionPointsByYear(uint16 _year) public pure returns (uint _maxYearlyPensionPoints) {\n    return 2000;\n  }\n\n}\n",
  "sourcePath": "C:\\git\\asure-dapp\\packages\\smartcontracts\\contracts\\PensionSettings.sol",
  "compiler": {
    "name": "solc",
    "version": "0.4.24+commit.e67f0147.Emscripten.clang"
  },
  "schemaVersion": "2.0.1",
  "updatedAt": "2018-08-16T11:31:18.518Z"
}