{
  "contractName": "PensionPoints",
  "abi": [
    {
      "inputs": [
        {
          "name": "_pensionRegistryAddr",
          "type": "address"
        }
      ],
      "payable": false,
      "stateMutability": "nonpayable",
      "type": "constructor"
    },
    {
      "constant": true,
      "inputs": [
        {
          "name": "_user",
          "type": "address"
        }
      ],
      "name": "pointsOf",
      "outputs": [
        {
          "name": "points",
          "type": "uint256"
        }
      ],
      "payable": false,
      "stateMutability": "view",
      "type": "function"
    },
    {
      "constant": false,
      "inputs": [
        {
          "name": "_user",
          "type": "address"
        },
        {
          "name": "_year",
          "type": "uint16"
        },
        {
          "name": "_month",
          "type": "uint8"
        },
        {
          "name": "_amount",
          "type": "uint256"
        }
      ],
      "name": "payTo",
      "outputs": [
        {
          "name": "_success",
          "type": "bool"
        }
      ],
      "payable": false,
      "stateMutability": "nonpayable",
      "type": "function"
    },
    {
      "constant": true,
      "inputs": [
        {
          "name": "_user",
          "type": "address"
        },
        {
          "name": "_year",
          "type": "uint16"
        }
      ],
      "name": "getPaymentsByYear",
      "outputs": [
        {
          "name": "",
          "type": "uint256[12]"
        }
      ],
      "payable": false,
      "stateMutability": "view",
      "type": "function"
    },
    {
      "constant": true,
      "inputs": [
        {
          "name": "_user",
          "type": "address"
        },
        {
          "name": "_year",
          "type": "uint16"
        }
      ],
      "name": "getPointsByYear",
      "outputs": [
        {
          "name": "",
          "type": "uint256"
        }
      ],
      "payable": false,
      "stateMutability": "view",
      "type": "function"
    },
    {
      "constant": true,
      "inputs": [
        {
          "name": "_year",
          "type": "uint16"
        },
        {
          "name": "_amount",
          "type": "uint256"
        }
      ],
      "name": "getPointsByYearForAmount",
      "outputs": [
        {
          "name": "",
          "type": "uint256"
        }
      ],
      "payable": false,
      "stateMutability": "view",
      "type": "function"
    }
  ],
  "bytecode": "0x608060405234801561001057600080fd5b5060405160208061092d833981016040525160008054600160a060020a03909216600160a060020a03199092169190911790556108db806100526000396000f30060806040526004361061006c5763ffffffff7c010000000000000000000000000000000000000000000000000000000060003504166384b3dd0c81146100715780638d3f2130146100a2578063ab549c2a14610103578063b779097414610148578063cf6a440314610170575b600080fd5b34801561007d57600080fd5b5061009061ffff60043516602435610191565b60408051918252519081900360200190f35b3480156100ae57600080fd5b506100ca600160a060020a036004351661ffff602435166103f9565b604051808261018080838360005b838110156100f05781810151838201526020016100d8565b5050505090500191505060405180910390f35b34801561010f57600080fd5b50610134600160a060020a036004351661ffff6024351660ff6044351660643561046e565b604080519115158252519081900360200190f35b34801561015457600080fd5b50610090600160a060020a036004351661ffff60243516610704565b34801561017c57600080fd5b50610090600160a060020a036004351661073e565b60008054604080517fde981f1b0000000000000000000000000000000000000000000000000000000081526001600482015290518392839283928392600160a060020a03169163de981f1b91602480830192602092919082900301818787803b1580156101fd57600080fd5b505af1158015610211573d6000803e3d6000fd5b505050506040513d602081101561022757600080fd5b5051604080517f9719101900000000000000000000000000000000000000000000000000000000815261ffff8a1660048201529051919550600160a060020a038616916397191019916024808201926020929091908290030181600087803b15801561029257600080fd5b505af11580156102a6573d6000803e3d6000fd5b505050506040513d60208110156102bc57600080fd5b5051604080517fa66fbd0e00000000000000000000000000000000000000000000000000000000815261ffff8a1660048201529051919450600160a060020a0386169163a66fbd0e916024808201926020929091908290030181600087803b15801561032757600080fd5b505af115801561033b573d6000803e3d6000fd5b505050506040513d602081101561035157600080fd5b50519150612710838302049050808685600160a060020a031663961a04fa6040518163ffffffff167c0100000000000000000000000000000000000000000000000000000000028152600401602060405180830381600087803b1580156103b757600080fd5b505af11580156103cb573d6000803e3d6000fd5b505050506040513d60208110156103e157600080fd5b5051028115156103ed57fe5b04979650505050505050565b61040161088f565b61040961088f565b60005b600c8160ff16101561046657600160a060020a038516600090815260046020908152604080832061ffff88168452825280832060ff8516808552925290912054908390600c811061045957fe5b602002015260010161040c565b509392505050565b600080546040517fde981f1b000000000000000000000000000000000000000000000000000000008152600160a060020a039091169063de981f1b906004908101808260ff168152602001915050602060405180830381600087803b1580156104d657600080fd5b505af11580156104ea573d6000803e3d6000fd5b505050506040513d602081101561050057600080fd5b5051600160a060020a0316331461051657600080fd5b600c60ff84161061058857604080517f08c379a000000000000000000000000000000000000000000000000000000000815260206004820152601f60248201527f5f6d6f6e7468206d757374206265206265747765656e203020616e6420313100604482015290519081900360640190fd5b600160a060020a038516600090815260016020908152604091829020805483518184028101840190945280845261061c939283018282801561061157602002820191906000526020600020906000905b82829054906101000a900461ffff1661ffff16815260200190600201906020826001010492830192600103820291508084116105d85790505b50505050508561083e565b151561067057600160a060020a0385166000908152600160208181526040832080549283018155835290912060108204018054600f9092166002026101000a61ffff81810219909316928716029190911790555b600160a060020a038516600081815260036020908152604080832061ffff891680855281845282852080548901815595855260048452828520818652845282852060ff8a1686528452918420805488019055925252546106d1908590610191565b600160a060020a038616600090815260026020908152604080832061ffff89168452909152902055506001949350505050565b600160a060020a038216600090815260036020908152604080832061ffff85168452909152812054610737908390610191565b9392505050565b600160a060020a0381166000908152600160209081526040808320805482518185028101850190935280835284936060938593909290918301828280156107cc57602002820191906000526020600020906000905b82829054906101000a900461ffff1661ffff16815260200190600201906020826001010492830192600103820291508084116107935790505b50505050509150600090505b815181101561083557600160a060020a0385166000908152600260205260408120835190919084908490811061080a57fe5b602090810290910181015161ffff1682528101919091526040016000205492909201916001016107d8565b50909392505050565b6000805b8351811015610883578261ffff16848281518110151561085e57fe5b9060200190602002015161ffff16141561087b5760019150610888565b600101610842565b600091505b5092915050565b61018060405190810160405280600c9060208202803883395091929150505600a165627a7a723058205384448d1cca10f8f799a0a66a90a98d9c9b56be55535e525b486fefc199112b0029",
  "source": "pragma solidity ^0.4.23;\r\n\r\nimport \"./PensionRegistry.sol\";\r\nimport \"./PensionSettings.sol\";\r\n\r\ncontract PensionPoints {\r\n  PensionRegistry registry;\r\n\r\n  mapping(address => uint16[]) private yearsByUser;\r\n  mapping(address => mapping(uint16 => uint256)) private totalUserPointsPerYear;\r\n  mapping(address => mapping(uint16 => uint256)) private totalAmountPerYear;\r\n  mapping(address => mapping(uint16 => mapping(uint8 => uint256))) private totalAmountPerMonth;\r\n\r\n  constructor(address _pensionRegistryAddr) public {\r\n    registry = PensionRegistry(_pensionRegistryAddr);\r\n  }\r\n\r\n  // Pension points are scaled by 1000 because we cant use floating\r\n  // points.\r\n  function pointsOf(address _user) public view returns (uint256 points) {\r\n    uint pensionPoints;\r\n\r\n    uint16[] memory pensionPointYears = yearsByUser[_user];\r\n    for (uint i = 0; i < pensionPointYears.length; i++) {\r\n      pensionPoints += totalUserPointsPerYear[_user][pensionPointYears[i]];\r\n    }\r\n\r\n    return pensionPoints;\r\n  }\r\n\r\n  function payTo(address _user, uint16 _year, uint8 _month, uint256 _amount) public returns (bool _success) {\r\n    require(msg.sender == registry.getContract(PensionLib.ContractType.PensionWallet));\r\n    require(_month < 12, \"_month must be between 0 and 11\");\r\n\r\n    if (!contains(yearsByUser[_user], _year)) {\r\n      yearsByUser[_user].push(_year);\r\n    }\r\n\r\n    totalAmountPerYear[_user][_year] += _amount;\r\n    totalAmountPerMonth[_user][_year][_month] += _amount;\r\n    totalUserPointsPerYear[_user][_year] = getPointsByYearForAmount(_year, totalAmountPerYear[_user][_year]);\r\n\r\n    return true;\r\n  }\r\n\r\n  function getPaymentsByYear(address _user, uint16 _year) public view returns (uint256[12]) {\r\n    uint256[12] memory _payments;\r\n\r\n    for (uint8 month = 0; month < 12; month++) {\r\n      _payments[month] = totalAmountPerMonth[_user][_year][month];\r\n    }\r\n\r\n    return _payments;\r\n  }\r\n\r\n  function getPointsByYear(address _user, uint16 _year) public view returns (uint) {\r\n    return getPointsByYearForAmount(_year, totalAmountPerYear[_user][_year]);\r\n  }\r\n\r\n  // Pension points are scaled by 1000 because we cant use floating\r\n  // points.\r\n  function getPointsByYearForAmount(uint16 _year, uint256 _amount) public view returns (uint) {\r\n    PensionSettings settings = PensionSettings(registry.getContract(PensionLib.ContractType.PensionSettings));\r\n\r\n    uint averageIncomeByYear = settings.getAverageIncomeByYear(_year);\r\n    uint pensionSalaryPercentage = settings.getPensionSalaryPercentage(_year);\r\n\r\n    uint averagePensionByYear = (averageIncomeByYear * pensionSalaryPercentage) / 10000;\r\n\r\n    return (settings.getPensionPointPrecision() * _amount) / averagePensionByYear;\r\n  }\r\n\r\n  function contains(uint16[] arr, uint16 elm) private pure returns (bool) {\r\n    for (uint i = 0; i < arr.length; i++) {\r\n      if (arr[i] == elm) {\r\n        return true;\r\n      }\r\n    }\r\n\r\n    return false;\r\n  }\r\n}\r\n",
  "sourcePath": "C:\\git\\asure-dapp\\packages\\smartcontracts\\contracts\\PensionPoints.sol",
  "compiler": {
    "name": "solc",
    "version": "0.4.24+commit.e67f0147.Emscripten.clang"
  },
  "schemaVersion": "2.0.1",
  "updatedAt": "2018-08-13T20:29:40.837Z"
}