{
  "contractName": "Pension",
  "abi": [
    {
      "constant": false,
      "inputs": [],
      "name": "renounceOwnership",
      "outputs": [],
      "payable": false,
      "stateMutability": "nonpayable",
      "type": "function"
    },
    {
      "constant": true,
      "inputs": [],
      "name": "owner",
      "outputs": [
        {
          "name": "",
          "type": "address"
        }
      ],
      "payable": false,
      "stateMutability": "view",
      "type": "function"
    },
    {
      "constant": false,
      "inputs": [
        {
          "name": "_newOwner",
          "type": "address"
        }
      ],
      "name": "transferOwnership",
      "outputs": [],
      "payable": false,
      "stateMutability": "nonpayable",
      "type": "function"
    },
    {
      "inputs": [
        {
          "name": "_pensionRegistryAddr",
          "type": "address"
        }
      ],
      "payable": false,
      "stateMutability": "nonpayable",
      "type": "constructor"
    },
    {
      "anonymous": false,
      "inputs": [
        {
          "indexed": true,
          "name": "previousOwner",
          "type": "address"
        }
      ],
      "name": "OwnershipRenounced",
      "type": "event"
    },
    {
      "anonymous": false,
      "inputs": [
        {
          "indexed": true,
          "name": "previousOwner",
          "type": "address"
        },
        {
          "indexed": true,
          "name": "newOwner",
          "type": "address"
        }
      ],
      "name": "OwnershipTransferred",
      "type": "event"
    },
    {
      "constant": true,
      "inputs": [
        {
          "name": "_user",
          "type": "address"
        },
        {
          "name": "year",
          "type": "uint16"
        }
      ],
      "name": "pensionOf",
      "outputs": [
        {
          "name": "amount",
          "type": "uint256"
        }
      ],
      "payable": false,
      "stateMutability": "view",
      "type": "function"
    },
    {
      "constant": true,
      "inputs": [
        {
          "name": "_user",
          "type": "address"
        }
      ],
      "name": "expectedPensionOf",
      "outputs": [
        {
          "name": "amount",
          "type": "uint256"
        }
      ],
      "payable": false,
      "stateMutability": "view",
      "type": "function"
    },
    {
      "constant": true,
      "inputs": [
        {
          "name": "_accessYear",
          "type": "uint16"
        },
        {
          "name": "_actualYear",
          "type": "uint16"
        },
        {
          "name": "_actualPensionPoints",
          "type": "uint256"
        },
        {
          "name": "_yearlyIncome",
          "type": "uint256"
        },
        {
          "name": "_accessFactor",
          "type": "uint256"
        },
        {
          "name": "_pensionTypeFactor",
          "type": "uint256"
        }
      ],
      "name": "calculatePension",
      "outputs": [
        {
          "name": "amount",
          "type": "uint256"
        }
      ],
      "payable": false,
      "stateMutability": "view",
      "type": "function"
    },
    {
      "constant": true,
      "inputs": [
        {
          "name": "_year",
          "type": "uint16"
        },
        {
          "name": "_yearlyIncome",
          "type": "uint256"
        }
      ],
      "name": "calculatePensionPoints",
      "outputs": [
        {
          "name": "amount",
          "type": "uint256"
        }
      ],
      "payable": false,
      "stateMutability": "view",
      "type": "function"
    }
  ],
  "bytecode": "0x608060405234801561001057600080fd5b50604051602080610d8c833981016040525160008054600160a060020a0319908116331790915560018054600160a060020a0390931692909116919091179055610d2d8061005f6000396000f3006080604052600436106100825763ffffffff7c010000000000000000000000000000000000000000000000000000000060003504166370d63a828114610087578063715018a6146100c757806380c29358146100de5780638376a295146100ff5780638da5cb5b1461011e578063f2fde38b1461014f578063fceec01514610170575b600080fd5b34801561009357600080fd5b506100b561ffff6004358116906024351660443560643560843560a435610198565b60408051918252519081900360200190f35b3480156100d357600080fd5b506100dc6102e6565b005b3480156100ea57600080fd5b506100b5600160a060020a0360043516610352565b34801561010b57600080fd5b506100b561ffff6004351660243561064d565b34801561012a57600080fd5b5061013361082a565b60408051600160a060020a039092168252519081900360200190f35b34801561015b57600080fd5b506100dc600160a060020a0360043516610839565b34801561017c57600080fd5b506100b5600160a060020a036004351661ffff6024351661085c565b60018054604051600080516020610ce283398151915281526000928392839283928392600160a060020a03169163de981f1b9190600401808260ff168152602001915050602060405180830381600087803b1580156101f657600080fd5b505af115801561020a573d6000803e3d6000fd5b505050506040513d602081101561022057600080fd5b5051604080517f4421721200000000000000000000000000000000000000000000000000000000815261ffff8e1660048201529051919550600160a060020a038616916344217212916024808201926020929091908290030181600087803b15801561028b57600080fd5b505af115801561029f573d6000803e3d6000fd5b505050506040513d60208110156102b557600080fd5b505192506102c38a8961064d565b99909a0361ffff1690980296909601939093029190910290930295945050505050565b600054600160a060020a031633146102fd57600080fd5b60008054604051600160a060020a03909116917ff8df31144d9c2f0f6b59d69b8b98abd5459d07f2742c4df920b25aae33c6482091a26000805473ffffffffffffffffffffffffffffffffffffffff19169055565b600154604051600080516020610ce283398151915281526000918291829182918291829182918291600160a060020a039091169063de981f1b90600290600401808260ff168152602001915050602060405180830381600087803b1580156103b957600080fd5b505af11580156103cd573d6000803e3d6000fd5b505050506040513d60208110156103e357600080fd5b505160018054604051600080516020610ce28339815191528152929950600160a060020a03169163de981f1b9190600401808260ff168152602001915050602060405180830381600087803b15801561043b57600080fd5b505af115801561044f573d6000803e3d6000fd5b505050506040513d602081101561046557600080fd5b5051604080517f4b20f2e9000000000000000000000000000000000000000000000000000000008152600160a060020a038c811660048301529151929850610fa097506064965090891691634b20f2e9916024808201926020929091908290030181600087803b1580156104d857600080fd5b505af11580156104ec573d6000803e3d6000fd5b505050506040513d602081101561050257600080fd5b50516040517f20ccd9a2000000000000000000000000000000000000000000000000000000008152909350600160a060020a038716906320ccd9a29085906004018082600081111561055057fe5b60ff168152602001915050602060405180830381600087803b15801561057557600080fd5b505af1158015610589573d6000803e3d6000fd5b505050506040513d602081101561059f57600080fd5b5051604080517f442172120000000000000000000000000000000000000000000000000000000081526107f860048201529051919350600160a060020a038816916344217212916024808201926020929091908290030181600087803b15801561060857600080fd5b505af115801561061c573d6000803e3d6000fd5b505050506040513d602081101561063257600080fd5b505193909402029091026402540be400029695505050505050565b60018054604051600080516020610ce283398151915281526000928392839283928392600160a060020a03169163de981f1b9190600401808260ff168152602001915050602060405180830381600087803b1580156106ab57600080fd5b505af11580156106bf573d6000803e3d6000fd5b505050506040513d60208110156106d557600080fd5b5051604080517f9719101900000000000000000000000000000000000000000000000000000000815261ffff8a1660048201529051919550600160a060020a038616916397191019916024808201926020929091908290030181600087803b15801561074057600080fd5b505af1158015610754573d6000803e3d6000fd5b505050506040513d602081101561076a57600080fd5b5051604080517f02f1ec0200000000000000000000000000000000000000000000000000000000815261ffff8a1660048201529051919450600160a060020a038616916302f1ec02916024808201926020929091908290030181600087803b1580156107d557600080fd5b505af11580156107e9573d6000803e3d6000fd5b505050506040513d60208110156107ff57600080fd5b50519150826103e8870281151561081257fe5b049050818111156108205750805b9695505050505050565b600054600160a060020a031681565b600054600160a060020a0316331461085057600080fd5b61085981610c64565b50565b600154604051600080516020610ce283398151915281526000918291829182918291829182918291600160a060020a039091169063de981f1b90600290600401808260ff168152602001915050602060405180830381600087803b1580156108c357600080fd5b505af11580156108d7573d6000803e3d6000fd5b505050506040513d60208110156108ed57600080fd5b5051600154604051600080516020610ce28339815191528152919850600160a060020a03169063de981f1b90600090600401808260ff168152602001915050602060405180830381600087803b15801561094657600080fd5b505af115801561095a573d6000803e3d6000fd5b505050506040513d602081101561097057600080fd5b505160018054604051600080516020610ce28339815191528152929850600160a060020a03169163de981f1b9190600401808260ff168152602001915050602060405180830381600087803b1580156109c857600080fd5b505af11580156109dc573d6000803e3d6000fd5b505050506040513d60208110156109f257600080fd5b5051604080517fcf6a4403000000000000000000000000000000000000000000000000000000008152600160a060020a038d8116600483015291519297509088169163cf6a4403916024808201926020929091908290030181600087803b158015610a5c57600080fd5b505af1158015610a70573d6000803e3d6000fd5b505050506040513d6020811015610a8657600080fd5b5051604080517f4b20f2e9000000000000000000000000000000000000000000000000000000008152600160a060020a038d81166004830152915192965060649550818816926320ccd9a2928b1691634b20f2e99160248083019260209291908290030181600087803b158015610afc57600080fd5b505af1158015610b10573d6000803e3d6000fd5b505050506040513d6020811015610b2657600080fd5b50516040517c010000000000000000000000000000000000000000000000000000000063ffffffff841602815260040180826000811115610b6357fe5b60ff168152602001915050602060405180830381600087803b158015610b8857600080fd5b505af1158015610b9c573d6000803e3d6000fd5b505050506040513d6020811015610bb257600080fd5b5051604080517f4421721200000000000000000000000000000000000000000000000000000000815261ffff8c1660048201529051919350600160a060020a038716916344217212916024808201926020929091908290030181600087803b158015610c1d57600080fd5b505af1158015610c31573d6000803e3d6000fd5b505050506040513d6020811015610c4757600080fd5b505162989680939094029190910290920204979650505050505050565b600160a060020a0381161515610c7957600080fd5b60008054604051600160a060020a03808516939216917f8be0079c531659141344cd1fd0a4f28419497f9722a3daafe3b4186f6b6457e091a36000805473ffffffffffffffffffffffffffffffffffffffff1916600160a060020a03929092169190911790555600de981f1b00000000000000000000000000000000000000000000000000000000a165627a7a72305820a17bccc748c216d9a5604d4b91b13f38af52dc9b53c381cc22a42f7109189e9f0029",
  "source": "pragma solidity ^0.4.23;\n\nimport 'openzeppelin-solidity/contracts/ownership/Ownable.sol';\n\nimport \"./PensionRegistry.sol\";\nimport \"./PensionPoints.sol\";\nimport \"./PensionSettings.sol\";\nimport \"./PensionUsers.sol\";\n\ncontract Pension is Ownable {\n  PensionRegistry registry;\n\n  constructor(address _pensionRegistryAddr) public {\n    registry = PensionRegistry(_pensionRegistryAddr);\n  }\n\n  function pensionOf(address _user, uint16 year) public view returns (uint256 amount) {\n    PensionUsers users = PensionUsers(registry.getContract(PensionLib.ContractType.PensionUsers));\n    PensionPoints points = PensionPoints(registry.getContract(PensionLib.ContractType.PensionPoints));\n    PensionSettings settings = PensionSettings(registry.getContract(PensionLib.ContractType.PensionSettings));\n\n    uint256 ep = points.pointsOf(_user); //40000\n    uint256 zf = 100;\n    uint256 raf = settings.getPensionFactor(users.getUserPensionType(_user));\n    uint256 arw = settings.getPensionAmount(year);\n\n    // EP * ZF * RAF * aRW\n    //40 * 1 * 1 * 20\n    //40000 * 100 * 100 * 20*10**18\n\n    return ep * zf * raf * arw / 10**7;\n  }\n\n  function expectedPensionOf(address _user) public view returns (uint256 amount) {\n    PensionUsers users = PensionUsers(registry.getContract(PensionLib.ContractType.PensionUsers));\n    PensionSettings settings = PensionSettings(registry.getContract(PensionLib.ContractType.PensionSettings));\n\n    uint256 ep = 4000; //4000\n    uint256 zf = 100;\n    PensionLib.PensionType pt = users.getUserPensionType(_user);\n    uint256 raf = settings.getPensionFactor(pt);\n    uint256 arw = settings.getPensionAmount(2040);\n\n    // EP * ZF * RAF * aRW\n    //40 * 1 * 1 * 20\n    //4000 * 100 * 100 * 2000\n\n    return ep * zf * raf * arw * 10**10;\n  }\n\n\n  function calculatePension(uint16 _accessYear, uint16 _actualYear, uint256 _actualPensionPoints, uint256 _yearlyIncome, uint256 _accessFactor, uint256 _pensionTypeFactor) public view returns (uint256 amount) {\n    PensionSettings settings = PensionSettings(registry.getContract(PensionLib.ContractType.PensionSettings));\n\n    uint256 _pensionPointValue = settings.getPensionAmount(_accessYear);\n\n    uint256 _yearlyPensionPoints = calculatePensionPoints(_actualYear, _yearlyIncome); //TODO: calculate for every year until retirement\n\n    uint256 _calculatedPensionPoints = ((_accessYear - _actualYear) * _yearlyPensionPoints) + _actualPensionPoints;\n\n    return _calculatedPensionPoints * _accessFactor * _pensionTypeFactor * _pensionPointValue; //TODO: AccessFactor has to be calculated within smart contract (accessAge - actualAge)\n  }\n\n  function calculatePensionPoints(uint16 _year, uint256 _yearlyIncome) public view returns (uint256 amount) {\n    PensionSettings settings = PensionSettings(registry.getContract(PensionLib.ContractType.PensionSettings));\n\n    uint256 _averageIncome = settings.getAverageIncomeByYear(_year);\n    uint256 _maxPensionPoints = settings.getMaxPensionPointsByYear(_year);\n\n    uint256 _yearlyPensionPoints = _yearlyIncome*(10**3) / _averageIncome;\n\n    if (_yearlyPensionPoints > _maxPensionPoints) {\n      _yearlyPensionPoints = _maxPensionPoints;\n    }\n\n    return _yearlyPensionPoints;\n  }\n}\n",
  "sourcePath": "C:\\git\\asure-dapp\\packages\\smartcontracts\\contracts\\Pension.sol",
  "compiler": {
    "name": "solc",
    "version": "0.4.24+commit.e67f0147.Emscripten.clang"
  },
  "schemaVersion": "2.0.1",
  "updatedAt": "2018-08-16T11:31:18.525Z"
}