{
  "contractName": "Test",
  "abi": [
    {
      "constant": true,
      "inputs": [],
      "name": "helloWorld",
      "outputs": [
        {
          "name": "",
          "type": "int256"
        }
      ],
      "payable": false,
      "stateMutability": "view",
      "type": "function"
    },
    {
      "constant": false,
      "inputs": [],
      "name": "increment",
      "outputs": [
        {
          "name": "",
          "type": "int256"
        }
      ],
      "payable": false,
      "stateMutability": "nonpayable",
      "type": "function"
    }
  ],
  "bytecode": "0x608060405234801561001057600080fd5b5060c38061001f6000396000f30060806040526004361060485763ffffffff7c0100000000000000000000000000000000000000000000000000000000600035041663c605f76c8114604d578063d09de08a146071575b600080fd5b348015605857600080fd5b50605f6083565b60408051918252519081900360200190f35b348015607c57600080fd5b50605f6089565b60005490565b6000805460010190819055905600a165627a7a7230582027b709359583726a32fcca14d21d19a6755be31427d0a26fec7458d2363715100029",
  "source": "pragma solidity ^0.4.23;\r\n\r\n\r\ncontract Test {\r\n  int num;\r\n\r\n  function helloWorld() public view returns (int) {\r\n    return num;\r\n  }\r\n\r\n  function increment() public returns (int) {\r\n    num++;\r\n\r\n    return num;\r\n  }\r\n}\r\n",
  "sourcePath": "C:\\git\\asure-dapp\\packages\\smartcontracts\\contracts\\Test.sol",
  "compiler": {
    "name": "solc",
    "version": "0.4.24+commit.e67f0147.Emscripten.clang"
  },
  "schemaVersion": "2.0.1",
  "updatedAt": "2018-08-13T20:29:40.810Z"
}